{
  "contracts/Test.sol": {
    "Test": {
      "abi": [
        {
          "anonymous": false,
          "inputs": [
            {
              "indexed": false,
              "internalType": "uint256",
              "name": "newValue",
              "type": "uint256"
            }
          ],
          "name": "SumChanged",
          "type": "event"
        },
        {
          "inputs": [],
          "name": "getPath",
          "outputs": [
            {
              "internalType": "uint256",
              "name": "",
              "type": "uint256"
            }
          ],
          "stateMutability": "view",
          "type": "function"
        },
        {
          "inputs": [],
          "name": "getSum",
          "outputs": [
            {
              "internalType": "uint256",
              "name": "",
              "type": "uint256"
            }
          ],
          "stateMutability": "view",
          "type": "function"
        },
        {
          "inputs": [
            {
              "internalType": "uint256[]",
              "name": "_shares",
              "type": "uint256[]"
            }
          ],
          "name": "setShares",
          "outputs": [],
          "stateMutability": "nonpayable",
          "type": "function"
        },
        {
          "inputs": [
            {
              "internalType": "uint256",
              "name": "Sum",
              "type": "uint256"
            }
          ],
          "name": "setSum",
          "outputs": [],
          "stateMutability": "nonpayable",
          "type": "function"
        },
        {
          "inputs": [],
          "name": "split",
          "outputs": [],
          "stateMutability": "nonpayable",
          "type": "function"
        }
      ],
      "evm": {
        "bytecode": {
          "linkReferences": {},
          "object": "608060405234801561001057600080fd5b50610870806100206000396000f3fe608060405234801561001057600080fd5b50600436106100575760003560e01c8063555b37be1461005c578063569c5f6d1461007a5780637be4ca5b14610098578063dbff83be146100b4578063f7654176146100d0575b600080fd5b6100646100da565b604051610071919061057a565b60405180910390f35b610082610140565b60405161008f919061057a565b60405180910390f35b6100b260048036038101906100ad91906104ff565b61014a565b005b6100ce60048036038101906100c991906104be565b61018b565b005b6100d861027b565b005b60006064600154600460008154811061011c577f4e487b7100000000000000000000000000000000000000000000000000000000600052603260045260246000fd5b9060005260206000200154610131919061067e565b61013b919061064d565b905090565b6000600154905090565b806001819055507fcaeb6c3ff6bd16de81c29349e556a7523394cee9fe65f51267ec55f0491840ad81604051610180919061057a565b60405180910390a150565b805160028190555080600490805190602001906101a99291906103a9565b50600060038190555060005b60048054905081101561023257600481815481106101fc577f4e487b7100000000000000000000000000000000000000000000000000000000600052603260045260246000fd5b90600052602060002001546003600082825461021891906105f7565b92505081905550808061022a90610713565b9150506101b5565b50606460035414610278576040517f08c379a000000000000000000000000000000000000000000000000000000000815260040161026f9061055a565b60405180910390fd5b50565b60005b6004805490508110156103a657600581815481106102c5577f4e487b7100000000000000000000000000000000000000000000000000000000600052603260045260246000fd5b9060005260206000200160009054906101000a900473ffffffffffffffffffffffffffffffffffffffff1673ffffffffffffffffffffffffffffffffffffffff166108fc606460015460048581548110610348577f4e487b7100000000000000000000000000000000000000000000000000000000600052603260045260246000fd5b906000526020600020015461035d919061067e565b610367919061064d565b9081150290604051600060405180830381858888f19350505050158015610392573d6000803e3d6000fd5b50808061039e90610713565b91505061027e565b50565b8280548282559060005260206000209081019282156103e5579160200282015b828111156103e45782518255916020019190600101906103c9565b5b5090506103f291906103f6565b5090565b5b8082111561040f5760008160009055506001016103f7565b5090565b6000610426610421846105ba565b610595565b9050808382526020820190508285602086028201111561044557600080fd5b60005b85811015610475578161045b88826104a9565b845260208401935060208301925050600181019050610448565b5050509392505050565b600082601f83011261049057600080fd5b81356104a0848260208601610413565b91505092915050565b6000813590506104b881610823565b92915050565b6000602082840312156104d057600080fd5b600082013567ffffffffffffffff8111156104ea57600080fd5b6104f68482850161047f565b91505092915050565b60006020828403121561051157600080fd5b600061051f848285016104a9565b91505092915050565b60006105356019836105e6565b9150610540826107fa565b602082019050919050565b610554816106d8565b82525050565b6000602082019050818103600083015261057381610528565b9050919050565b600060208201905061058f600083018461054b565b92915050565b600061059f6105b0565b90506105ab82826106e2565b919050565b6000604051905090565b600067ffffffffffffffff8211156105d5576105d46107ba565b5b602082029050602081019050919050565b600082825260208201905092915050565b6000610602826106d8565b915061060d836106d8565b9250827fffffffffffffffffffffffffffffffffffffffffffffffffffffffffffffffff038211156106425761064161075c565b5b828201905092915050565b6000610658826106d8565b9150610663836106d8565b9250826106735761067261078b565b5b828204905092915050565b6000610689826106d8565b9150610694836106d8565b9250817fffffffffffffffffffffffffffffffffffffffffffffffffffffffffffffffff04831182151516156106cd576106cc61075c565b5b828202905092915050565b6000819050919050565b6106eb826107e9565b810181811067ffffffffffffffff8211171561070a576107096107ba565b5b80604052505050565b600061071e826106d8565b91507fffffffffffffffffffffffffffffffffffffffffffffffffffffffffffffffff8214156107515761075061075c565b5b600182019050919050565b7f4e487b7100000000000000000000000000000000000000000000000000000000600052601160045260246000fd5b7f4e487b7100000000000000000000000000000000000000000000000000000000600052601260045260246000fd5b7f4e487b7100000000000000000000000000000000000000000000000000000000600052604160045260246000fd5b6000601f19601f8301169050919050565b7f736861726527732073756d6d6172792069732077726f6e672100000000000000600082015250565b61082c816106d8565b811461083757600080fd5b5056fea26469706673582212208d2040c053c239f7667521d7ed3a95dcf31ce5893885c1004f7ea4e8eb98fc6964736f6c63430008010033",
          "opcodes": "PUSH1 0x80 PUSH1 0x40 MSTORE CALLVALUE DUP1 ISZERO PUSH2 0x10 JUMPI PUSH1 0x0 DUP1 REVERT JUMPDEST POP PUSH2 0x870 DUP1 PUSH2 0x20 PUSH1 0x0 CODECOPY PUSH1 0x0 RETURN INVALID PUSH1 0x80 PUSH1 0x40 MSTORE CALLVALUE DUP1 ISZERO PUSH2 0x10 JUMPI PUSH1 0x0 DUP1 REVERT JUMPDEST POP PUSH1 0x4 CALLDATASIZE LT PUSH2 0x57 JUMPI PUSH1 0x0 CALLDATALOAD PUSH1 0xE0 SHR DUP1 PUSH4 0x555B37BE EQ PUSH2 0x5C JUMPI DUP1 PUSH4 0x569C5F6D EQ PUSH2 0x7A JUMPI DUP1 PUSH4 0x7BE4CA5B EQ PUSH2 0x98 JUMPI DUP1 PUSH4 0xDBFF83BE EQ PUSH2 0xB4 JUMPI DUP1 PUSH4 0xF7654176 EQ PUSH2 0xD0 JUMPI JUMPDEST PUSH1 0x0 DUP1 REVERT JUMPDEST PUSH2 0x64 PUSH2 0xDA JUMP JUMPDEST PUSH1 0x40 MLOAD PUSH2 0x71 SWAP2 SWAP1 PUSH2 0x57A JUMP JUMPDEST PUSH1 0x40 MLOAD DUP1 SWAP2 SUB SWAP1 RETURN JUMPDEST PUSH2 0x82 PUSH2 0x140 JUMP JUMPDEST PUSH1 0x40 MLOAD PUSH2 0x8F SWAP2 SWAP1 PUSH2 0x57A JUMP JUMPDEST PUSH1 0x40 MLOAD DUP1 SWAP2 SUB SWAP1 RETURN JUMPDEST PUSH2 0xB2 PUSH1 0x4 DUP1 CALLDATASIZE SUB DUP2 ADD SWAP1 PUSH2 0xAD SWAP2 SWAP1 PUSH2 0x4FF JUMP JUMPDEST PUSH2 0x14A JUMP JUMPDEST STOP JUMPDEST PUSH2 0xCE PUSH1 0x4 DUP1 CALLDATASIZE SUB DUP2 ADD SWAP1 PUSH2 0xC9 SWAP2 SWAP1 PUSH2 0x4BE JUMP JUMPDEST PUSH2 0x18B JUMP JUMPDEST STOP JUMPDEST PUSH2 0xD8 PUSH2 0x27B JUMP JUMPDEST STOP JUMPDEST PUSH1 0x0 PUSH1 0x64 PUSH1 0x1 SLOAD PUSH1 0x4 PUSH1 0x0 DUP2 SLOAD DUP2 LT PUSH2 0x11C JUMPI PUSH32 0x4E487B7100000000000000000000000000000000000000000000000000000000 PUSH1 0x0 MSTORE PUSH1 0x32 PUSH1 0x4 MSTORE PUSH1 0x24 PUSH1 0x0 REVERT JUMPDEST SWAP1 PUSH1 0x0 MSTORE PUSH1 0x20 PUSH1 0x0 KECCAK256 ADD SLOAD PUSH2 0x131 SWAP2 SWAP1 PUSH2 0x67E JUMP JUMPDEST PUSH2 0x13B SWAP2 SWAP1 PUSH2 0x64D JUMP JUMPDEST SWAP1 POP SWAP1 JUMP JUMPDEST PUSH1 0x0 PUSH1 0x1 SLOAD SWAP1 POP SWAP1 JUMP JUMPDEST DUP1 PUSH1 0x1 DUP2 SWAP1 SSTORE POP PUSH32 0xCAEB6C3FF6BD16DE81C29349E556A7523394CEE9FE65F51267EC55F0491840AD DUP2 PUSH1 0x40 MLOAD PUSH2 0x180 SWAP2 SWAP1 PUSH2 0x57A JUMP JUMPDEST PUSH1 0x40 MLOAD DUP1 SWAP2 SUB SWAP1 LOG1 POP JUMP JUMPDEST DUP1 MLOAD PUSH1 0x2 DUP2 SWAP1 SSTORE POP DUP1 PUSH1 0x4 SWAP1 DUP1 MLOAD SWAP1 PUSH1 0x20 ADD SWAP1 PUSH2 0x1A9 SWAP3 SWAP2 SWAP1 PUSH2 0x3A9 JUMP JUMPDEST POP PUSH1 0x0 PUSH1 0x3 DUP2 SWAP1 SSTORE POP PUSH1 0x0 JUMPDEST PUSH1 0x4 DUP1 SLOAD SWAP1 POP DUP2 LT ISZERO PUSH2 0x232 JUMPI PUSH1 0x4 DUP2 DUP2 SLOAD DUP2 LT PUSH2 0x1FC JUMPI PUSH32 0x4E487B7100000000000000000000000000000000000000000000000000000000 PUSH1 0x0 MSTORE PUSH1 0x32 PUSH1 0x4 MSTORE PUSH1 0x24 PUSH1 0x0 REVERT JUMPDEST SWAP1 PUSH1 0x0 MSTORE PUSH1 0x20 PUSH1 0x0 KECCAK256 ADD SLOAD PUSH1 0x3 PUSH1 0x0 DUP3 DUP3 SLOAD PUSH2 0x218 SWAP2 SWAP1 PUSH2 0x5F7 JUMP JUMPDEST SWAP3 POP POP DUP2 SWAP1 SSTORE POP DUP1 DUP1 PUSH2 0x22A SWAP1 PUSH2 0x713 JUMP JUMPDEST SWAP2 POP POP PUSH2 0x1B5 JUMP JUMPDEST POP PUSH1 0x64 PUSH1 0x3 SLOAD EQ PUSH2 0x278 JUMPI PUSH1 0x40 MLOAD PUSH32 0x8C379A000000000000000000000000000000000000000000000000000000000 DUP2 MSTORE PUSH1 0x4 ADD PUSH2 0x26F SWAP1 PUSH2 0x55A JUMP JUMPDEST PUSH1 0x40 MLOAD DUP1 SWAP2 SUB SWAP1 REVERT JUMPDEST POP JUMP JUMPDEST PUSH1 0x0 JUMPDEST PUSH1 0x4 DUP1 SLOAD SWAP1 POP DUP2 LT ISZERO PUSH2 0x3A6 JUMPI PUSH1 0x5 DUP2 DUP2 SLOAD DUP2 LT PUSH2 0x2C5 JUMPI PUSH32 0x4E487B7100000000000000000000000000000000000000000000000000000000 PUSH1 0x0 MSTORE PUSH1 0x32 PUSH1 0x4 MSTORE PUSH1 0x24 PUSH1 0x0 REVERT JUMPDEST SWAP1 PUSH1 0x0 MSTORE PUSH1 0x20 PUSH1 0x0 KECCAK256 ADD PUSH1 0x0 SWAP1 SLOAD SWAP1 PUSH2 0x100 EXP SWAP1 DIV PUSH20 0xFFFFFFFFFFFFFFFFFFFFFFFFFFFFFFFFFFFFFFFF AND PUSH20 0xFFFFFFFFFFFFFFFFFFFFFFFFFFFFFFFFFFFFFFFF AND PUSH2 0x8FC PUSH1 0x64 PUSH1 0x1 SLOAD PUSH1 0x4 DUP6 DUP2 SLOAD DUP2 LT PUSH2 0x348 JUMPI PUSH32 0x4E487B7100000000000000000000000000000000000000000000000000000000 PUSH1 0x0 MSTORE PUSH1 0x32 PUSH1 0x4 MSTORE PUSH1 0x24 PUSH1 0x0 REVERT JUMPDEST SWAP1 PUSH1 0x0 MSTORE PUSH1 0x20 PUSH1 0x0 KECCAK256 ADD SLOAD PUSH2 0x35D SWAP2 SWAP1 PUSH2 0x67E JUMP JUMPDEST PUSH2 0x367 SWAP2 SWAP1 PUSH2 0x64D JUMP JUMPDEST SWAP1 DUP2 ISZERO MUL SWAP1 PUSH1 0x40 MLOAD PUSH1 0x0 PUSH1 0x40 MLOAD DUP1 DUP4 SUB DUP2 DUP6 DUP9 DUP9 CALL SWAP4 POP POP POP POP ISZERO DUP1 ISZERO PUSH2 0x392 JUMPI RETURNDATASIZE PUSH1 0x0 DUP1 RETURNDATACOPY RETURNDATASIZE PUSH1 0x0 REVERT JUMPDEST POP DUP1 DUP1 PUSH2 0x39E SWAP1 PUSH2 0x713 JUMP JUMPDEST SWAP2 POP POP PUSH2 0x27E JUMP JUMPDEST POP JUMP JUMPDEST DUP3 DUP1 SLOAD DUP3 DUP3 SSTORE SWAP1 PUSH1 0x0 MSTORE PUSH1 0x20 PUSH1 0x0 KECCAK256 SWAP1 DUP2 ADD SWAP3 DUP3 ISZERO PUSH2 0x3E5 JUMPI SWAP2 PUSH1 0x20 MUL DUP3 ADD JUMPDEST DUP3 DUP2 GT ISZERO PUSH2 0x3E4 JUMPI DUP3 MLOAD DUP3 SSTORE SWAP2 PUSH1 0x20 ADD SWAP2 SWAP1 PUSH1 0x1 ADD SWAP1 PUSH2 0x3C9 JUMP JUMPDEST JUMPDEST POP SWAP1 POP PUSH2 0x3F2 SWAP2 SWAP1 PUSH2 0x3F6 JUMP JUMPDEST POP SWAP1 JUMP JUMPDEST JUMPDEST DUP1 DUP3 GT ISZERO PUSH2 0x40F JUMPI PUSH1 0x0 DUP2 PUSH1 0x0 SWAP1 SSTORE POP PUSH1 0x1 ADD PUSH2 0x3F7 JUMP JUMPDEST POP SWAP1 JUMP JUMPDEST PUSH1 0x0 PUSH2 0x426 PUSH2 0x421 DUP5 PUSH2 0x5BA JUMP JUMPDEST PUSH2 0x595 JUMP JUMPDEST SWAP1 POP DUP1 DUP4 DUP3 MSTORE PUSH1 0x20 DUP3 ADD SWAP1 POP DUP3 DUP6 PUSH1 0x20 DUP7 MUL DUP3 ADD GT ISZERO PUSH2 0x445 JUMPI PUSH1 0x0 DUP1 REVERT JUMPDEST PUSH1 0x0 JUMPDEST DUP6 DUP2 LT ISZERO PUSH2 0x475 JUMPI DUP2 PUSH2 0x45B DUP9 DUP3 PUSH2 0x4A9 JUMP JUMPDEST DUP5 MSTORE PUSH1 0x20 DUP5 ADD SWAP4 POP PUSH1 0x20 DUP4 ADD SWAP3 POP POP PUSH1 0x1 DUP2 ADD SWAP1 POP PUSH2 0x448 JUMP JUMPDEST POP POP POP SWAP4 SWAP3 POP POP POP JUMP JUMPDEST PUSH1 0x0 DUP3 PUSH1 0x1F DUP4 ADD SLT PUSH2 0x490 JUMPI PUSH1 0x0 DUP1 REVERT JUMPDEST DUP2 CALLDATALOAD PUSH2 0x4A0 DUP5 DUP3 PUSH1 0x20 DUP7 ADD PUSH2 0x413 JUMP JUMPDEST SWAP2 POP POP SWAP3 SWAP2 POP POP JUMP JUMPDEST PUSH1 0x0 DUP2 CALLDATALOAD SWAP1 POP PUSH2 0x4B8 DUP2 PUSH2 0x823 JUMP JUMPDEST SWAP3 SWAP2 POP POP JUMP JUMPDEST PUSH1 0x0 PUSH1 0x20 DUP3 DUP5 SUB SLT ISZERO PUSH2 0x4D0 JUMPI PUSH1 0x0 DUP1 REVERT JUMPDEST PUSH1 0x0 DUP3 ADD CALLDATALOAD PUSH8 0xFFFFFFFFFFFFFFFF DUP2 GT ISZERO PUSH2 0x4EA JUMPI PUSH1 0x0 DUP1 REVERT JUMPDEST PUSH2 0x4F6 DUP5 DUP3 DUP6 ADD PUSH2 0x47F JUMP JUMPDEST SWAP2 POP POP SWAP3 SWAP2 POP POP JUMP JUMPDEST PUSH1 0x0 PUSH1 0x20 DUP3 DUP5 SUB SLT ISZERO PUSH2 0x511 JUMPI PUSH1 0x0 DUP1 REVERT JUMPDEST PUSH1 0x0 PUSH2 0x51F DUP5 DUP3 DUP6 ADD PUSH2 0x4A9 JUMP JUMPDEST SWAP2 POP POP SWAP3 SWAP2 POP POP JUMP JUMPDEST PUSH1 0x0 PUSH2 0x535 PUSH1 0x19 DUP4 PUSH2 0x5E6 JUMP JUMPDEST SWAP2 POP PUSH2 0x540 DUP3 PUSH2 0x7FA JUMP JUMPDEST PUSH1 0x20 DUP3 ADD SWAP1 POP SWAP2 SWAP1 POP JUMP JUMPDEST PUSH2 0x554 DUP2 PUSH2 0x6D8 JUMP JUMPDEST DUP3 MSTORE POP POP JUMP JUMPDEST PUSH1 0x0 PUSH1 0x20 DUP3 ADD SWAP1 POP DUP2 DUP2 SUB PUSH1 0x0 DUP4 ADD MSTORE PUSH2 0x573 DUP2 PUSH2 0x528 JUMP JUMPDEST SWAP1 POP SWAP2 SWAP1 POP JUMP JUMPDEST PUSH1 0x0 PUSH1 0x20 DUP3 ADD SWAP1 POP PUSH2 0x58F PUSH1 0x0 DUP4 ADD DUP5 PUSH2 0x54B JUMP JUMPDEST SWAP3 SWAP2 POP POP JUMP JUMPDEST PUSH1 0x0 PUSH2 0x59F PUSH2 0x5B0 JUMP JUMPDEST SWAP1 POP PUSH2 0x5AB DUP3 DUP3 PUSH2 0x6E2 JUMP JUMPDEST SWAP2 SWAP1 POP JUMP JUMPDEST PUSH1 0x0 PUSH1 0x40 MLOAD SWAP1 POP SWAP1 JUMP JUMPDEST PUSH1 0x0 PUSH8 0xFFFFFFFFFFFFFFFF DUP3 GT ISZERO PUSH2 0x5D5 JUMPI PUSH2 0x5D4 PUSH2 0x7BA JUMP JUMPDEST JUMPDEST PUSH1 0x20 DUP3 MUL SWAP1 POP PUSH1 0x20 DUP2 ADD SWAP1 POP SWAP2 SWAP1 POP JUMP JUMPDEST PUSH1 0x0 DUP3 DUP3 MSTORE PUSH1 0x20 DUP3 ADD SWAP1 POP SWAP3 SWAP2 POP POP JUMP JUMPDEST PUSH1 0x0 PUSH2 0x602 DUP3 PUSH2 0x6D8 JUMP JUMPDEST SWAP2 POP PUSH2 0x60D DUP4 PUSH2 0x6D8 JUMP JUMPDEST SWAP3 POP DUP3 PUSH32 0xFFFFFFFFFFFFFFFFFFFFFFFFFFFFFFFFFFFFFFFFFFFFFFFFFFFFFFFFFFFFFFFF SUB DUP3 GT ISZERO PUSH2 0x642 JUMPI PUSH2 0x641 PUSH2 0x75C JUMP JUMPDEST JUMPDEST DUP3 DUP3 ADD SWAP1 POP SWAP3 SWAP2 POP POP JUMP JUMPDEST PUSH1 0x0 PUSH2 0x658 DUP3 PUSH2 0x6D8 JUMP JUMPDEST SWAP2 POP PUSH2 0x663 DUP4 PUSH2 0x6D8 JUMP JUMPDEST SWAP3 POP DUP3 PUSH2 0x673 JUMPI PUSH2 0x672 PUSH2 0x78B JUMP JUMPDEST JUMPDEST DUP3 DUP3 DIV SWAP1 POP SWAP3 SWAP2 POP POP JUMP JUMPDEST PUSH1 0x0 PUSH2 0x689 DUP3 PUSH2 0x6D8 JUMP JUMPDEST SWAP2 POP PUSH2 0x694 DUP4 PUSH2 0x6D8 JUMP JUMPDEST SWAP3 POP DUP2 PUSH32 0xFFFFFFFFFFFFFFFFFFFFFFFFFFFFFFFFFFFFFFFFFFFFFFFFFFFFFFFFFFFFFFFF DIV DUP4 GT DUP3 ISZERO ISZERO AND ISZERO PUSH2 0x6CD JUMPI PUSH2 0x6CC PUSH2 0x75C JUMP JUMPDEST JUMPDEST DUP3 DUP3 MUL SWAP1 POP SWAP3 SWAP2 POP POP JUMP JUMPDEST PUSH1 0x0 DUP2 SWAP1 POP SWAP2 SWAP1 POP JUMP JUMPDEST PUSH2 0x6EB DUP3 PUSH2 0x7E9 JUMP JUMPDEST DUP2 ADD DUP2 DUP2 LT PUSH8 0xFFFFFFFFFFFFFFFF DUP3 GT OR ISZERO PUSH2 0x70A JUMPI PUSH2 0x709 PUSH2 0x7BA JUMP JUMPDEST JUMPDEST DUP1 PUSH1 0x40 MSTORE POP POP POP JUMP JUMPDEST PUSH1 0x0 PUSH2 0x71E DUP3 PUSH2 0x6D8 JUMP JUMPDEST SWAP2 POP PUSH32 0xFFFFFFFFFFFFFFFFFFFFFFFFFFFFFFFFFFFFFFFFFFFFFFFFFFFFFFFFFFFFFFFF DUP3 EQ ISZERO PUSH2 0x751 JUMPI PUSH2 0x750 PUSH2 0x75C JUMP JUMPDEST JUMPDEST PUSH1 0x1 DUP3 ADD SWAP1 POP SWAP2 SWAP1 POP JUMP JUMPDEST PUSH32 0x4E487B7100000000000000000000000000000000000000000000000000000000 PUSH1 0x0 MSTORE PUSH1 0x11 PUSH1 0x4 MSTORE PUSH1 0x24 PUSH1 0x0 REVERT JUMPDEST PUSH32 0x4E487B7100000000000000000000000000000000000000000000000000000000 PUSH1 0x0 MSTORE PUSH1 0x12 PUSH1 0x4 MSTORE PUSH1 0x24 PUSH1 0x0 REVERT JUMPDEST PUSH32 0x4E487B7100000000000000000000000000000000000000000000000000000000 PUSH1 0x0 MSTORE PUSH1 0x41 PUSH1 0x4 MSTORE PUSH1 0x24 PUSH1 0x0 REVERT JUMPDEST PUSH1 0x0 PUSH1 0x1F NOT PUSH1 0x1F DUP4 ADD AND SWAP1 POP SWAP2 SWAP1 POP JUMP JUMPDEST PUSH32 0x736861726527732073756D6D6172792069732077726F6E672100000000000000 PUSH1 0x0 DUP3 ADD MSTORE POP JUMP JUMPDEST PUSH2 0x82C DUP2 PUSH2 0x6D8 JUMP JUMPDEST DUP2 EQ PUSH2 0x837 JUMPI PUSH1 0x0 DUP1 REVERT JUMPDEST POP JUMP INVALID LOG2 PUSH5 0x6970667358 0x22 SLT KECCAK256 DUP14 KECCAK256 BLOCKHASH 0xC0 MSTORE8 0xC2 CODECOPY 0xF7 PUSH7 0x7521D7ED3A95DC RETURN SHR 0xE5 DUP10 CODESIZE DUP6 0xC1 STOP 0x4F PUSH31 0xA4E8EB98FC6964736F6C634300080100330000000000000000000000000000 "
        },
        "methodIdentifiers": {
          "getPath()": "555b37be",
          "getSum()": "569c5f6d",
          "setShares(uint256[])": "dbff83be",
          "setSum(uint256)": "7be4ca5b",
          "split()": "f7654176"
        }
      }
    }
  }
}