{
  "_format": "hh-sol-artifact-1",
  "contractName": "PaymentSplitter",
  "sourceName": "contracts/PaymentSplitter.sol",
  "abi": [
    {
      "inputs": [],
      "stateMutability": "nonpayable",
      "type": "constructor"
    },
    {
      "anonymous": false,
      "inputs": [
        {
          "components": [
            {
              "internalType": "uint48",
              "name": "perc_big_part",
              "type": "uint48"
            },
            {
              "internalType": "uint48",
              "name": "perc_lil_part",
              "type": "uint48"
            },
            {
              "internalType": "address payable",
              "name": "addresses",
              "type": "address"
            }
          ],
          "indexed": false,
          "internalType": "struct PaymentSplitter.Member[]",
          "name": "members",
          "type": "tuple[]"
        }
      ],
      "name": "membersChanged",
      "type": "event"
    },
    {
      "inputs": [
        {
          "internalType": "uint256",
          "name": "i",
          "type": "uint256"
        }
      ],
      "name": "getMembers",
      "outputs": [
        {
          "components": [
            {
              "internalType": "uint48",
              "name": "perc_big_part",
              "type": "uint48"
            },
            {
              "internalType": "uint48",
              "name": "perc_lil_part",
              "type": "uint48"
            },
            {
              "internalType": "address payable",
              "name": "addresses",
              "type": "address"
            }
          ],
          "internalType": "struct PaymentSplitter.Member",
          "name": "",
          "type": "tuple"
        }
      ],
      "stateMutability": "view",
      "type": "function"
    },
    {
      "inputs": [],
      "name": "getMembersNum",
      "outputs": [
        {
          "internalType": "uint256",
          "name": "",
          "type": "uint256"
        }
      ],
      "stateMutability": "view",
      "type": "function"
    },
    {
      "inputs": [
        {
          "internalType": "uint256",
          "name": "i",
          "type": "uint256"
        },
        {
          "internalType": "uint256",
          "name": "amount",
          "type": "uint256"
        }
      ],
      "name": "getPath",
      "outputs": [
        {
          "internalType": "uint256",
          "name": "",
          "type": "uint256"
        }
      ],
      "stateMutability": "view",
      "type": "function"
    },
    {
      "inputs": [],
      "name": "owner",
      "outputs": [
        {
          "internalType": "address",
          "name": "",
          "type": "address"
        }
      ],
      "stateMutability": "view",
      "type": "function"
    },
    {
      "inputs": [
        {
          "components": [
            {
              "internalType": "uint48",
              "name": "perc_big_part",
              "type": "uint48"
            },
            {
              "internalType": "uint48",
              "name": "perc_lil_part",
              "type": "uint48"
            },
            {
              "internalType": "address payable",
              "name": "addresses",
              "type": "address"
            }
          ],
          "internalType": "struct PaymentSplitter.Member[]",
          "name": "_members",
          "type": "tuple[]"
        }
      ],
      "name": "setShares",
      "outputs": [],
      "stateMutability": "nonpayable",
      "type": "function"
    },
    {
      "inputs": [],
      "name": "split",
      "outputs": [],
      "stateMutability": "payable",
      "type": "function"
    }
  ],
  "bytecode": "0x608060405234801561001057600080fd5b50336000600c6101000a81548173ffffffffffffffffffffffffffffffffffffffff021916908373ffffffffffffffffffffffffffffffffffffffff16021790555061110a806100616000396000f3fe6080604052600436106100555760003560e01c80635b62b5df1461005a5780638da5cb5b1461008357806396c418fb146100ae578063a1e5d268146100eb578063c477ecab14610116578063f765417614610153575b600080fd5b34801561006657600080fd5b50610081600480360381019061007c91906109fa565b61015d565b005b34801561008f57600080fd5b506100986104ad565b6040516100a59190610c0d565b60405180910390f35b3480156100ba57600080fd5b506100d560048036038101906100d09190610a64565b6104d3565b6040516100e29190610c85565b60405180910390f35b3480156100f757600080fd5b506101006105cc565b60405161010d9190610c85565b60405180910390f35b34801561012257600080fd5b5061013d60048036038101906101389190610a3b565b6105ef565b60405161014a9190610c6a565b60405180910390f35b61015b6106fb565b005b6001600061016b91906107ed565b80516000806101000a81548165ffffffffffff021916908365ffffffffffff16021790555060008060066101000a81548165ffffffffffff021916908365ffffffffffff16021790555060005b60008054906101000a900465ffffffffffff1665ffffffffffff168110156102d157818181518110610213577f4e487b7100000000000000000000000000000000000000000000000000000000600052603260045260246000fd5b602002602001015160200151606483838151811061025a577f4e487b7100000000000000000000000000000000000000000000000000000000600052603260045260246000fd5b6020026020010151600001516102709190610e07565b61027a9190610d40565b600060068282829054906101000a900465ffffffffffff1661029c9190610d40565b92506101000a81548165ffffffffffff021916908365ffffffffffff16021790555080806102c990610f58565b9150506101b8565b50612710600060069054906101000a900465ffffffffffff1665ffffffffffff1614610332576040517f08c379a000000000000000000000000000000000000000000000000000000000815260040161032990610c4a565b60405180910390fd5b60005b60008054906101000a900465ffffffffffff1665ffffffffffff16811015610471576001828281518110610392577f4e487b7100000000000000000000000000000000000000000000000000000000600052603260045260246000fd5b60200260200101519080600181540180825580915050600190039060005260206000200160009091909190915060008201518160000160006101000a81548165ffffffffffff021916908365ffffffffffff16021790555060208201518160000160066101000a81548165ffffffffffff021916908365ffffffffffff160217905550604082015181600001600c6101000a81548173ffffffffffffffffffffffffffffffffffffffff021916908373ffffffffffffffffffffffffffffffffffffffff1602179055505050808061046990610f58565b915050610335565b507fb3b33f369d740b51b5d0d70b2ff19a4703b72998311e3241d5d6cf4d8519048360016040516104a29190610c28565b60405180910390a150565b6000600c9054906101000a900473ffffffffffffffffffffffffffffffffffffffff1681565b6000806127108360018681548110610514577f4e487b7100000000000000000000000000000000000000000000000000000000600052603260045260246000fd5b9060005260206000200160000160069054906101000a900465ffffffffffff16606460018881548110610570577f4e487b7100000000000000000000000000000000000000000000000000000000600052603260045260246000fd5b9060005260206000200160000160009054906101000a900465ffffffffffff1661059a9190610e07565b6105a49190610d40565b65ffffffffffff166105b69190610dad565b6105c09190610d7c565b90508091505092915050565b60008060009054906101000a900465ffffffffffff1665ffffffffffff16905090565b6105f761080e565b60018281548110610631577f4e487b7100000000000000000000000000000000000000000000000000000000600052603260045260246000fd5b906000526020600020016040518060600160405290816000820160009054906101000a900465ffffffffffff1665ffffffffffff1665ffffffffffff1681526020016000820160069054906101000a900465ffffffffffff1665ffffffffffff1665ffffffffffff16815260200160008201600c9054906101000a900473ffffffffffffffffffffffffffffffffffffffff1673ffffffffffffffffffffffffffffffffffffffff1673ffffffffffffffffffffffffffffffffffffffff16815250509050919050565b60005b60008054906101000a900465ffffffffffff1665ffffffffffff168110156107ea576001818154811061075a577f4e487b7100000000000000000000000000000000000000000000000000000000600052603260045260246000fd5b90600052602060002001600001600c9054906101000a900473ffffffffffffffffffffffffffffffffffffffff1673ffffffffffffffffffffffffffffffffffffffff166108fc6107ab83346104d3565b9081150290604051600060405180830381858888f193505050501580156107d6573d6000803e3d6000fd5b5080806107e290610f58565b9150506106fe565b50565b508054600082559060005260206000209081019061080b9190610855565b50565b6040518060600160405280600065ffffffffffff168152602001600065ffffffffffff168152602001600073ffffffffffffffffffffffffffffffffffffffff1681525090565b5b808211156108c157600080820160006101000a81549065ffffffffffff02191690556000820160066101000a81549065ffffffffffff021916905560008201600c6101000a81549073ffffffffffffffffffffffffffffffffffffffff021916905550600101610856565b5090565b60006108d86108d384610cc5565b610ca0565b905080838252602082019050828560608602820111156108f757600080fd5b60005b85811015610927578161090d8882610970565b8452602084019350606083019250506001810190506108fa565b5050509392505050565b6000813590506109408161108f565b92915050565b600082601f83011261095757600080fd5b81356109678482602086016108c5565b91505092915050565b60006060828403121561098257600080fd5b61098c6060610ca0565b9050600061099c848285016109e5565b60008301525060206109b0848285016109e5565b60208301525060406109c484828501610931565b60408301525092915050565b6000813590506109df816110a6565b92915050565b6000813590506109f4816110bd565b92915050565b600060208284031215610a0c57600080fd5b600082013567ffffffffffffffff811115610a2657600080fd5b610a3284828501610946565b91505092915050565b600060208284031215610a4d57600080fd5b6000610a5b848285016109d0565b91505092915050565b60008060408385031215610a7757600080fd5b6000610a85858286016109d0565b9250506020610a96858286016109d0565b9150509250929050565b6000610aac8383610b98565b60608301905092915050565b610ac181610e8b565b82525050565b610ad081610e79565b82525050565b6000610ae182610d06565b610aeb8185610d1e565b9350610af683610cf1565b8060005b83811015610b265781610b0d8882610aa0565b9750610b1883610d11565b925050600181019050610afa565b5085935050505092915050565b6000610b40601483610d2f565b9150610b4b82611066565b602082019050919050565b606082016000820151610b6c6000850182610bfe565b506020820151610b7f6020850182610bfe565b506040820151610b926040850182610ab8565b50505050565b606082016000808301549050610bad81610ed9565b610bba6000860182610bfe565b50610bc481610f0d565b610bd16020860182610bfe565b50610bdb81610ef3565b610be86040860182610ab8565b5050505050565b610bf881610ebd565b82525050565b610c0781610ec7565b82525050565b6000602082019050610c226000830184610ac7565b92915050565b60006020820190508181036000830152610c428184610ad6565b905092915050565b60006020820190508181036000830152610c6381610b33565b9050919050565b6000606082019050610c7f6000830184610b56565b92915050565b6000602082019050610c9a6000830184610bef565b92915050565b6000610caa610cbb565b9050610cb68282610f27565b919050565b6000604051905090565b600067ffffffffffffffff821115610ce057610cdf610fff565b5b602082029050602081019050919050565b60008190508160005260206000209050919050565b600081549050919050565b6000600182019050919050565b600082825260208201905092915050565b600082825260208201905092915050565b6000610d4b82610ec7565b9150610d5683610ec7565b92508265ffffffffffff03821115610d7157610d70610fa1565b5b828201905092915050565b6000610d8782610ebd565b9150610d9283610ebd565b925082610da257610da1610fd0565b5b828204905092915050565b6000610db882610ebd565b9150610dc383610ebd565b9250817fffffffffffffffffffffffffffffffffffffffffffffffffffffffffffffffff0483118215151615610dfc57610dfb610fa1565b5b828202905092915050565b6000610e1282610ec7565b9150610e1d83610ec7565b92508165ffffffffffff0483118215151615610e3c57610e3b610fa1565b5b828202905092915050565b600073ffffffffffffffffffffffffffffffffffffffff82169050919050565b600065ffffffffffff82169050919050565b6000610e8482610e9d565b9050919050565b6000610e9682610e9d565b9050919050565b600073ffffffffffffffffffffffffffffffffffffffff82169050919050565b6000819050919050565b600065ffffffffffff82169050919050565b6000610eec610ee78361103f565b610e67565b9050919050565b6000610f06610f0183611059565b610e47565b9050919050565b6000610f20610f1b8361104c565b610e67565b9050919050565b610f308261102e565b810181811067ffffffffffffffff82111715610f4f57610f4e610fff565b5b80604052505050565b6000610f6382610ebd565b91507fffffffffffffffffffffffffffffffffffffffffffffffffffffffffffffffff821415610f9657610f95610fa1565b5b600182019050919050565b7f4e487b7100000000000000000000000000000000000000000000000000000000600052601160045260246000fd5b7f4e487b7100000000000000000000000000000000000000000000000000000000600052601260045260246000fd5b7f4e487b7100000000000000000000000000000000000000000000000000000000600052604160045260246000fd5b6000601f19601f8301169050919050565b60008160001c9050919050565b60008160301c9050919050565b60008160601c9050919050565b7f7368617265732073756d2069732077726f6e6721000000000000000000000000600082015250565b61109881610e8b565b81146110a357600080fd5b50565b6110af81610ebd565b81146110ba57600080fd5b50565b6110c681610ec7565b81146110d157600080fd5b5056fea264697066735822122030f2be3c6f0bc21310fe52b44dbb720d36b6174a1da34d521c59169ddf0c824b64736f6c63430008010033",
  "linkReferences": {},
  "deployedLinkReferences": {}
}