{
  "_format": "hh-sol-artifact-1",
  "contractName": "PaymentSplitter",
  "sourceName": "contracts/PaymentSplitter.sol",
  "abi": [
    {
      "inputs": [],
      "stateMutability": "nonpayable",
      "type": "constructor"
    },
    {
      "anonymous": false,
      "inputs": [
        {
          "indexed": false,
          "internalType": "uint256",
          "name": "newAmount",
          "type": "uint256"
        }
      ],
      "name": "amountChanged",
      "type": "event"
    },
    {
      "anonymous": false,
      "inputs": [
        {
          "indexed": false,
          "internalType": "uint256[]",
          "name": "newShares",
          "type": "uint256[]"
        }
      ],
      "name": "sharesChanged",
      "type": "event"
    },
    {
      "inputs": [],
      "name": "getAddressesNum",
      "outputs": [
        {
          "internalType": "uint256",
          "name": "",
          "type": "uint256"
        }
      ],
      "stateMutability": "view",
      "type": "function"
    },
    {
      "inputs": [],
      "name": "getAmount",
      "outputs": [
        {
          "internalType": "uint256",
          "name": "",
          "type": "uint256"
        }
      ],
      "stateMutability": "view",
      "type": "function"
    },
    {
      "inputs": [],
      "name": "getMembersNum",
      "outputs": [
        {
          "internalType": "uint256",
          "name": "",
          "type": "uint256"
        }
      ],
      "stateMutability": "view",
      "type": "function"
    },
    {
      "inputs": [],
      "name": "getPath",
      "outputs": [
        {
          "internalType": "uint256",
          "name": "",
          "type": "uint256"
        }
      ],
      "stateMutability": "view",
      "type": "function"
    },
    {
      "inputs": [],
      "name": "owner",
      "outputs": [
        {
          "internalType": "address",
          "name": "",
          "type": "address"
        }
      ],
      "stateMutability": "view",
      "type": "function"
    },
    {
      "inputs": [],
      "name": "setAmount",
      "outputs": [],
      "stateMutability": "payable",
      "type": "function"
    },
    {
      "inputs": [
        {
          "internalType": "uint256[]",
          "name": "_shares",
          "type": "uint256[]"
        },
        {
          "internalType": "address payable[]",
          "name": "_addresses",
          "type": "address[]"
        }
      ],
      "name": "setShares",
      "outputs": [],
      "stateMutability": "nonpayable",
      "type": "function"
    },
    {
      "inputs": [],
      "name": "split",
      "outputs": [],
      "stateMutability": "nonpayable",
      "type": "function"
    }
  ],
  "bytecode": "0x608060405234801561001057600080fd5b5033600760006101000a81548173ffffffffffffffffffffffffffffffffffffffff021916908373ffffffffffffffffffffffffffffffffffffffff160217905550610cef806100616000396000f3fe60806040526004361061007b5760003560e01c8063a1e5d2681161004e578063a1e5d26814610109578063cd0a72e314610134578063d321fe291461015f578063f76541761461018a5761007b565b80632fe46f9f1461008057806344770daa146100a9578063555b37be146100b35780638da5cb5b146100de575b600080fd5b34801561008c57600080fd5b506100a760048036038101906100a2919061075a565b6101a1565b005b6100b16102e9565b005b3480156100bf57600080fd5b506100c8610333565b6040516100d591906108f0565b60405180910390f35b3480156100ea57600080fd5b506100f361039e565b6040516101009190610893565b60405180910390f35b34801561011557600080fd5b5061011e6103c4565b60405161012b91906108f0565b60405180910390f35b34801561014057600080fd5b506101496103ce565b60405161015691906108f0565b60405180910390f35b34801561016b57600080fd5b506101746103d8565b60405161018191906108f0565b60405180910390f35b34801561019657600080fd5b5061019f6103e2565b005b8151600281905550805160038190555081600590805190602001906101c7929190610510565b50600060048190555060005b600580549050811015610250576005818154811061021a577f4e487b7100000000000000000000000000000000000000000000000000000000600052603260045260246000fd5b90600052602060002001546004600082825461023691906109d7565b92505081905550808061024890610b5b565b9150506101d3565b50606460045414610296576040517f08c379a000000000000000000000000000000000000000000000000000000000815260040161028d906108d0565b60405180910390fd5b7f3fd82b9953b52493ca85e3d3e614a29d49f999cfc908b668f7edff732525947160056040516102c691906108ae565b60405180910390a180600690805190602001906102e492919061055d565b505050565b3460018190555060026001819055507fd48083585ed3d68358c79c1f8541c517afc1e9a50287449a8bb5d5f2de3d619060015460405161032991906108f0565b60405180910390a1565b60008060646001546005600081548110610376577f4e487b7100000000000000000000000000000000000000000000000000000000600052603260045260246000fd5b906000526020600020015461038b9190610a5e565b6103959190610a2d565b90508091505090565b600760009054906101000a900473ffffffffffffffffffffffffffffffffffffffff1681565b6000600254905090565b6000600354905090565b6000600154905090565b60005b60058054905081101561050d576006818154811061042c577f4e487b7100000000000000000000000000000000000000000000000000000000600052603260045260246000fd5b9060005260206000200160009054906101000a900473ffffffffffffffffffffffffffffffffffffffff1673ffffffffffffffffffffffffffffffffffffffff166108fc6064600154600585815481106104af577f4e487b7100000000000000000000000000000000000000000000000000000000600052603260045260246000fd5b90600052602060002001546104c49190610a5e565b6104ce9190610a2d565b9081150290604051600060405180830381858888f193505050501580156104f9573d6000803e3d6000fd5b50808061050590610b5b565b9150506103e5565b50565b82805482825590600052602060002090810192821561054c579160200282015b8281111561054b578251825591602001919060010190610530565b5b50905061055991906105e7565b5090565b8280548282559060005260206000209081019282156105d6579160200282015b828111156105d55782518260006101000a81548173ffffffffffffffffffffffffffffffffffffffff021916908373ffffffffffffffffffffffffffffffffffffffff1602179055509160200191906001019061057d565b5b5090506105e391906105e7565b5090565b5b808211156106005760008160009055506001016105e8565b5090565b600061061761061284610930565b61090b565b9050808382526020820190508285602086028201111561063657600080fd5b60005b85811015610666578161064c88826106dc565b845260208401935060208301925050600181019050610639565b5050509392505050565b600061068361067e8461095c565b61090b565b905080838252602082019050828560208602820111156106a257600080fd5b60005b858110156106d257816106b88882610745565b8452602084019350602083019250506001810190506106a5565b5050509392505050565b6000813590506106eb81610c8b565b92915050565b600082601f83011261070257600080fd5b8135610712848260208601610604565b91505092915050565b600082601f83011261072c57600080fd5b813561073c848260208601610670565b91505092915050565b60008135905061075481610ca2565b92915050565b6000806040838503121561076d57600080fd5b600083013567ffffffffffffffff81111561078757600080fd5b6107938582860161071b565b925050602083013567ffffffffffffffff8111156107b057600080fd5b6107bc858286016106f1565b9150509250929050565b60006107d28383610875565b60208301905092915050565b6107e781610ac2565b82525050565b60006107f88261099d565b61080281856109b5565b935061080d83610988565b8060005b838110156108455761082282610c31565b61082c88826107c6565b9750610837836109a8565b925050600181019050610811565b5085935050505092915050565b600061085f6014836109c6565b915061086a82610c62565b602082019050919050565b61087e81610b06565b82525050565b61088d81610b06565b82525050565b60006020820190506108a860008301846107de565b92915050565b600060208201905081810360008301526108c881846107ed565b905092915050565b600060208201905081810360008301526108e981610852565b9050919050565b60006020820190506109056000830184610884565b92915050565b6000610915610926565b90506109218282610b2a565b919050565b6000604051905090565b600067ffffffffffffffff82111561094b5761094a610c02565b5b602082029050602081019050919050565b600067ffffffffffffffff82111561097757610976610c02565b5b602082029050602081019050919050565b60008190508160005260206000209050919050565b600081549050919050565b6000600182019050919050565b600082825260208201905092915050565b600082825260208201905092915050565b60006109e282610b06565b91506109ed83610b06565b9250827fffffffffffffffffffffffffffffffffffffffffffffffffffffffffffffffff03821115610a2257610a21610ba4565b5b828201905092915050565b6000610a3882610b06565b9150610a4383610b06565b925082610a5357610a52610bd3565b5b828204905092915050565b6000610a6982610b06565b9150610a7483610b06565b9250817fffffffffffffffffffffffffffffffffffffffffffffffffffffffffffffffff0483118215151615610aad57610aac610ba4565b5b828202905092915050565b6000819050919050565b6000610acd82610ae6565b9050919050565b6000610adf82610ae6565b9050919050565b600073ffffffffffffffffffffffffffffffffffffffff82169050919050565b6000819050919050565b6000610b23610b1e83610c55565b610ab8565b9050919050565b610b3382610c44565b810181811067ffffffffffffffff82111715610b5257610b51610c02565b5b80604052505050565b6000610b6682610b06565b91507fffffffffffffffffffffffffffffffffffffffffffffffffffffffffffffffff821415610b9957610b98610ba4565b5b600182019050919050565b7f4e487b7100000000000000000000000000000000000000000000000000000000600052601160045260246000fd5b7f4e487b7100000000000000000000000000000000000000000000000000000000600052601260045260246000fd5b7f4e487b7100000000000000000000000000000000000000000000000000000000600052604160045260246000fd5b6000610c3d8254610b10565b9050919050565b6000601f19601f8301169050919050565b60008160001c9050919050565b7f7368617265732073756d2069732077726f6e6721000000000000000000000000600082015250565b610c9481610ad4565b8114610c9f57600080fd5b50565b610cab81610b06565b8114610cb657600080fd5b5056fea26469706673582212208f34e4a547217ea3e08b2523960a97f30877b65e0bb0befa60bba78c3fb748c264736f6c63430008010033",
  "linkReferences": {},
  "deployedLinkReferences": {}
}