{
  "_format": "hh-sol-artifact-1",
  "contractName": "PaymentSplitter",
  "sourceName": "contracts/PaymentSplitter.sol",
  "abi": [
    {
      "inputs": [],
      "stateMutability": "nonpayable",
      "type": "constructor"
    },
    {
      "anonymous": false,
      "inputs": [
        {
          "indexed": false,
          "internalType": "uint256",
          "name": "newAmount",
          "type": "uint256"
        }
      ],
      "name": "amountChanged",
      "type": "event"
    },
    {
      "anonymous": false,
      "inputs": [
        {
          "components": [
            {
              "internalType": "uint256",
              "name": "perc_big_part",
              "type": "uint256"
            },
            {
              "internalType": "uint256",
              "name": "perc_lil_part",
              "type": "uint256"
            },
            {
              "internalType": "address payable",
              "name": "addresses",
              "type": "address"
            }
          ],
          "indexed": false,
          "internalType": "struct PaymentSplitter.Member[]",
          "name": "members",
          "type": "tuple[]"
        }
      ],
      "name": "membersChanged",
      "type": "event"
    },
    {
      "inputs": [],
      "name": "getAmount",
      "outputs": [
        {
          "internalType": "uint256",
          "name": "",
          "type": "uint256"
        }
      ],
      "stateMutability": "view",
      "type": "function"
    },
    {
      "inputs": [
        {
          "internalType": "uint256",
          "name": "i",
          "type": "uint256"
        }
      ],
      "name": "getMembers",
      "outputs": [
        {
          "components": [
            {
              "internalType": "uint256",
              "name": "perc_big_part",
              "type": "uint256"
            },
            {
              "internalType": "uint256",
              "name": "perc_lil_part",
              "type": "uint256"
            },
            {
              "internalType": "address payable",
              "name": "addresses",
              "type": "address"
            }
          ],
          "internalType": "struct PaymentSplitter.Member",
          "name": "",
          "type": "tuple"
        }
      ],
      "stateMutability": "view",
      "type": "function"
    },
    {
      "inputs": [],
      "name": "getMembersNum",
      "outputs": [
        {
          "internalType": "uint256",
          "name": "",
          "type": "uint256"
        }
      ],
      "stateMutability": "view",
      "type": "function"
    },
    {
      "inputs": [
        {
          "internalType": "uint256",
          "name": "i",
          "type": "uint256"
        }
      ],
      "name": "getPath",
      "outputs": [
        {
          "internalType": "uint256",
          "name": "",
          "type": "uint256"
        }
      ],
      "stateMutability": "view",
      "type": "function"
    },
    {
      "inputs": [],
      "name": "owner",
      "outputs": [
        {
          "internalType": "address",
          "name": "",
          "type": "address"
        }
      ],
      "stateMutability": "view",
      "type": "function"
    },
    {
      "inputs": [],
      "name": "setAmount",
      "outputs": [],
      "stateMutability": "payable",
      "type": "function"
    },
    {
      "inputs": [
        {
          "components": [
            {
              "internalType": "uint256",
              "name": "perc_big_part",
              "type": "uint256"
            },
            {
              "internalType": "uint256",
              "name": "perc_lil_part",
              "type": "uint256"
            },
            {
              "internalType": "address payable",
              "name": "addresses",
              "type": "address"
            }
          ],
          "internalType": "struct PaymentSplitter.Member[]",
          "name": "_members",
          "type": "tuple[]"
        }
      ],
      "name": "setShares",
      "outputs": [],
      "stateMutability": "nonpayable",
      "type": "function"
    },
    {
      "inputs": [],
      "name": "split",
      "outputs": [],
      "stateMutability": "nonpayable",
      "type": "function"
    }
  ],
  "bytecode": "0x608060405234801561001057600080fd5b5033600360006101000a81548173ffffffffffffffffffffffffffffffffffffffff021916908373ffffffffffffffffffffffffffffffffffffffff160217905550610ec1806100616000396000f3fe60806040526004361061007b5760003560e01c8063c477ecab1161004e578063c477ecab14610109578063d321fe2914610146578063e176507314610171578063f7654176146101ae5761007b565b806344770daa1461008057806378f8ef881461008a5780638da5cb5b146100b3578063a1e5d268146100de575b600080fd5b6100886101c5565b005b34801561009657600080fd5b506100b160048036038101906100ac919061086a565b610207565b005b3480156100bf57600080fd5b506100c861045b565b6040516100d59190610a4f565b60405180910390f35b3480156100ea57600080fd5b506100f3610481565b6040516101009190610ac7565b60405180910390f35b34801561011557600080fd5b50610130600480360381019061012b91906108ab565b61048b565b60405161013d9190610aac565b60405180910390f35b34801561015257600080fd5b5061015b610557565b6040516101689190610ac7565b60405180910390f35b34801561017d57600080fd5b50610198600480360381019061019391906108ab565b610560565b6040516101a59190610ac7565b60405180910390f35b3480156101ba57600080fd5b506101c3610636565b005b346000819055507fd48083585ed3d68358c79c1f8541c517afc1e9a50287449a8bb5d5f2de3d61906000546040516101fd9190610ac7565b60405180910390a1565b8051600181905550600060028190555060005b6001548110156102ef5781818151811061025d577f4e487b7100000000000000000000000000000000000000000000000000000000600052603260045260246000fd5b60200260200101516020015160648383815181106102a4577f4e487b7100000000000000000000000000000000000000000000000000000000600052603260045260246000fd5b6020026020010151600001516102ba9190610c09565b6102c49190610b82565b600260008282546102d59190610b82565b9250508190555080806102e790610d40565b91505061021a565b5061271060025414610336576040517f08c379a000000000000000000000000000000000000000000000000000000000815260040161032d90610a8c565b60405180910390fd5b60005b60015481101561041f57600482828151811061037e577f4e487b7100000000000000000000000000000000000000000000000000000000600052603260045260246000fd5b60200260200101519080600181540180825580915050600190039060005260206000209060030201600090919091909150600082015181600001556020820151816001015560408201518160020160006101000a81548173ffffffffffffffffffffffffffffffffffffffff021916908373ffffffffffffffffffffffffffffffffffffffff1602179055505050808061041790610d40565b915050610339565b507fe7b4f1f28c2c89c18340a5b78032b1a17b98cc25faad5ce52980e14ba777a38f60046040516104509190610a6a565b60405180910390a150565b600360009054906101000a900473ffffffffffffffffffffffffffffffffffffffff1681565b6000600154905090565b610493610713565b600482815481106104cd577f4e487b7100000000000000000000000000000000000000000000000000000000600052603260045260246000fd5b906000526020600020906003020160405180606001604052908160008201548152602001600182015481526020016002820160009054906101000a900473ffffffffffffffffffffffffffffffffffffffff1673ffffffffffffffffffffffffffffffffffffffff1673ffffffffffffffffffffffffffffffffffffffff16815250509050919050565b60008054905090565b600080612710600054600485815481106105a3577f4e487b7100000000000000000000000000000000000000000000000000000000600052603260045260246000fd5b9060005260206000209060030201600101546064600487815481106105f1577f4e487b7100000000000000000000000000000000000000000000000000000000600052603260045260246000fd5b90600052602060002090600302016000015461060d9190610c09565b6106179190610b82565b6106219190610c09565b61062b9190610bd8565b905080915050919050565b60005b600154811015610710576004818154811061067d577f4e487b7100000000000000000000000000000000000000000000000000000000600052603260045260246000fd5b906000526020600020906003020160020160009054906101000a900473ffffffffffffffffffffffffffffffffffffffff1673ffffffffffffffffffffffffffffffffffffffff166108fc6106d183610560565b9081150290604051600060405180830381858888f193505050501580156106fc573d6000803e3d6000fd5b50808061070890610d40565b915050610639565b50565b60405180606001604052806000815260200160008152602001600073ffffffffffffffffffffffffffffffffffffffff1681525090565b600061075d61075884610b07565b610ae2565b9050808382526020820190508285606086028201111561077c57600080fd5b60005b858110156107ac578161079288826107f5565b84526020840193506060830192505060018101905061077f565b5050509392505050565b6000813590506107c581610e5d565b92915050565b600082601f8301126107dc57600080fd5b81356107ec84826020860161074a565b91505092915050565b60006060828403121561080757600080fd5b6108116060610ae2565b9050600061082184828501610855565b600083015250602061083584828501610855565b6020830152506040610849848285016107b6565b60408301525092915050565b60008135905061086481610e74565b92915050565b60006020828403121561087c57600080fd5b600082013567ffffffffffffffff81111561089657600080fd5b6108a2848285016107cb565b91505092915050565b6000602082840312156108bd57600080fd5b60006108cb84828501610855565b91505092915050565b60006108e083836109cc565b60608301905092915050565b6108f581610c9f565b82525050565b61090481610c8d565b82525050565b600061091582610b48565b61091f8185610b60565b935061092a83610b33565b8060005b8381101561095a578161094188826108d4565b975061094c83610b53565b92505060018101905061092e565b5085935050505092915050565b6000610974601483610b71565b915061097f82610e34565b602082019050919050565b6060820160008201516109a06000850182610a31565b5060208201516109b36020850182610a31565b5060408201516109c660408501826108ec565b50505050565b6060820160008083015490506109e181610cf5565b6109ee6000860182610a31565b50600183015490506109ff81610cf5565b610a0c6020860182610a31565b5060028301549050610a1d81610cdb565b610a2a60408601826108ec565b5050505050565b610a3a81610cd1565b82525050565b610a4981610cd1565b82525050565b6000602082019050610a6460008301846108fb565b92915050565b60006020820190508181036000830152610a84818461090a565b905092915050565b60006020820190508181036000830152610aa581610967565b9050919050565b6000606082019050610ac1600083018461098a565b92915050565b6000602082019050610adc6000830184610a40565b92915050565b6000610aec610afd565b9050610af88282610d0f565b919050565b6000604051905090565b600067ffffffffffffffff821115610b2257610b21610de7565b5b602082029050602081019050919050565b60008190508160005260206000209050919050565b600081549050919050565b6000600382019050919050565b600082825260208201905092915050565b600082825260208201905092915050565b6000610b8d82610cd1565b9150610b9883610cd1565b9250827fffffffffffffffffffffffffffffffffffffffffffffffffffffffffffffffff03821115610bcd57610bcc610d89565b5b828201905092915050565b6000610be382610cd1565b9150610bee83610cd1565b925082610bfe57610bfd610db8565b5b828204905092915050565b6000610c1482610cd1565b9150610c1f83610cd1565b9250817fffffffffffffffffffffffffffffffffffffffffffffffffffffffffffffffff0483118215151615610c5857610c57610d89565b5b828202905092915050565b600073ffffffffffffffffffffffffffffffffffffffff82169050919050565b6000819050919050565b6000610c9882610cb1565b9050919050565b6000610caa82610cb1565b9050919050565b600073ffffffffffffffffffffffffffffffffffffffff82169050919050565b6000819050919050565b6000610cee610ce983610e27565b610c63565b9050919050565b6000610d08610d0383610e27565b610c83565b9050919050565b610d1882610e16565b810181811067ffffffffffffffff82111715610d3757610d36610de7565b5b80604052505050565b6000610d4b82610cd1565b91507fffffffffffffffffffffffffffffffffffffffffffffffffffffffffffffffff821415610d7e57610d7d610d89565b5b600182019050919050565b7f4e487b7100000000000000000000000000000000000000000000000000000000600052601160045260246000fd5b7f4e487b7100000000000000000000000000000000000000000000000000000000600052601260045260246000fd5b7f4e487b7100000000000000000000000000000000000000000000000000000000600052604160045260246000fd5b6000601f19601f8301169050919050565b60008160001c9050919050565b7f7368617265732073756d2069732077726f6e6721000000000000000000000000600082015250565b610e6681610c9f565b8114610e7157600080fd5b50565b610e7d81610cd1565b8114610e8857600080fd5b5056fea2646970667358221220dca70bfe31853162aa04c92bd57f676fe17ac3aaee08a9858647e3f3217c7cf664736f6c63430008010033",
  "linkReferences": {},
  "deployedLinkReferences": {}
}