{
  "_format": "hh-sol-artifact-1",
  "contractName": "PaymentSplitter",
  "sourceName": "contracts/PaymentSplitter.sol",
  "abi": [
    {
      "inputs": [],
      "stateMutability": "nonpayable",
      "type": "constructor"
    },
    {
      "anonymous": false,
      "inputs": [
        {
          "indexed": false,
          "internalType": "uint256",
          "name": "newAmount",
          "type": "uint256"
        }
      ],
      "name": "amountChanged",
      "type": "event"
    },
    {
      "anonymous": false,
      "inputs": [
        {
          "components": [
            {
              "internalType": "uint256",
              "name": "perc_big_part",
              "type": "uint256"
            },
            {
              "internalType": "uint256",
              "name": "perc_lil_part",
              "type": "uint256"
            },
            {
              "internalType": "address payable",
              "name": "addresses",
              "type": "address"
            }
          ],
          "indexed": false,
          "internalType": "struct PaymentSplitter.Member[]",
          "name": "members",
          "type": "tuple[]"
        }
      ],
      "name": "membersChanged",
      "type": "event"
    },
    {
      "inputs": [],
      "name": "getAmount",
      "outputs": [
        {
          "internalType": "uint256",
          "name": "",
          "type": "uint256"
        }
      ],
      "stateMutability": "view",
      "type": "function"
    },
    {
      "inputs": [
        {
          "internalType": "uint256",
          "name": "i",
          "type": "uint256"
        }
      ],
      "name": "getMembers",
      "outputs": [
        {
          "components": [
            {
              "internalType": "uint256",
              "name": "perc_big_part",
              "type": "uint256"
            },
            {
              "internalType": "uint256",
              "name": "perc_lil_part",
              "type": "uint256"
            },
            {
              "internalType": "address payable",
              "name": "addresses",
              "type": "address"
            }
          ],
          "internalType": "struct PaymentSplitter.Member",
          "name": "",
          "type": "tuple"
        }
      ],
      "stateMutability": "view",
      "type": "function"
    },
    {
      "inputs": [],
      "name": "getMembersNum",
      "outputs": [
        {
          "internalType": "uint256",
          "name": "",
          "type": "uint256"
        }
      ],
      "stateMutability": "view",
      "type": "function"
    },
    {
      "inputs": [
        {
          "internalType": "uint256",
          "name": "i",
          "type": "uint256"
        }
      ],
      "name": "getPath",
      "outputs": [
        {
          "internalType": "uint256",
          "name": "",
          "type": "uint256"
        }
      ],
      "stateMutability": "view",
      "type": "function"
    },
    {
      "inputs": [],
      "name": "owner",
      "outputs": [
        {
          "internalType": "address",
          "name": "",
          "type": "address"
        }
      ],
      "stateMutability": "view",
      "type": "function"
    },
    {
      "inputs": [],
      "name": "setAmount",
      "outputs": [],
      "stateMutability": "payable",
      "type": "function"
    },
    {
      "inputs": [
        {
          "components": [
            {
              "internalType": "uint256",
              "name": "perc_big_part",
              "type": "uint256"
            },
            {
              "internalType": "uint256",
              "name": "perc_lil_part",
              "type": "uint256"
            },
            {
              "internalType": "address payable",
              "name": "addresses",
              "type": "address"
            }
          ],
          "internalType": "struct PaymentSplitter.Member[]",
          "name": "_members",
          "type": "tuple[]"
        }
      ],
      "name": "setShares",
      "outputs": [],
      "stateMutability": "nonpayable",
      "type": "function"
    },
    {
      "inputs": [],
      "name": "split",
      "outputs": [],
      "stateMutability": "nonpayable",
      "type": "function"
    }
  ],
  "bytecode": "0x608060405234801561001057600080fd5b5033600360006101000a81548173ffffffffffffffffffffffffffffffffffffffff021916908373ffffffffffffffffffffffffffffffffffffffff160217905550610f80806100616000396000f3fe60806040526004361061007b5760003560e01c8063c477ecab1161004e578063c477ecab14610109578063d321fe2914610146578063e176507314610171578063f7654176146101ae5761007b565b806344770daa1461008057806378f8ef881461008a5780638da5cb5b146100b3578063a1e5d268146100de575b600080fd5b6100886101c5565b005b34801561009657600080fd5b506100b160048036038101906100ac9190610929565b610207565b005b3480156100bf57600080fd5b506100c861045b565b6040516100d59190610b0e565b60405180910390f35b3480156100ea57600080fd5b506100f3610481565b6040516101009190610b86565b60405180910390f35b34801561011557600080fd5b50610130600480360381019061012b919061096a565b61048b565b60405161013d9190610b6b565b60405180910390f35b34801561015257600080fd5b5061015b610557565b6040516101689190610b86565b60405180910390f35b34801561017d57600080fd5b506101986004803603810190610193919061096a565b610560565b6040516101a59190610b86565b60405180910390f35b3480156101ba57600080fd5b506101c3610636565b005b346000819055507fd48083585ed3d68358c79c1f8541c517afc1e9a50287449a8bb5d5f2de3d61906000546040516101fd9190610b86565b60405180910390a1565b8051600181905550600060028190555060005b6001548110156102ef5781818151811061025d577f4e487b7100000000000000000000000000000000000000000000000000000000600052603260045260246000fd5b60200260200101516020015160648383815181106102a4577f4e487b7100000000000000000000000000000000000000000000000000000000600052603260045260246000fd5b6020026020010151600001516102ba9190610cc8565b6102c49190610c41565b600260008282546102d59190610c41565b9250508190555080806102e790610dff565b91505061021a565b5061271060025414610336576040517f08c379a000000000000000000000000000000000000000000000000000000000815260040161032d90610b4b565b60405180910390fd5b60005b60015481101561041f57600482828151811061037e577f4e487b7100000000000000000000000000000000000000000000000000000000600052603260045260246000fd5b60200260200101519080600181540180825580915050600190039060005260206000209060030201600090919091909150600082015181600001556020820151816001015560408201518160020160006101000a81548173ffffffffffffffffffffffffffffffffffffffff021916908373ffffffffffffffffffffffffffffffffffffffff1602179055505050808061041790610dff565b915050610339565b507fe7b4f1f28c2c89c18340a5b78032b1a17b98cc25faad5ce52980e14ba777a38f60046040516104509190610b29565b60405180910390a150565b600360009054906101000a900473ffffffffffffffffffffffffffffffffffffffff1681565b6000600154905090565b6104936107d2565b600482815481106104cd577f4e487b7100000000000000000000000000000000000000000000000000000000600052603260045260246000fd5b906000526020600020906003020160405180606001604052908160008201548152602001600182015481526020016002820160009054906101000a900473ffffffffffffffffffffffffffffffffffffffff1673ffffffffffffffffffffffffffffffffffffffff1673ffffffffffffffffffffffffffffffffffffffff16815250509050919050565b60008054905090565b600080612710600054600485815481106105a3577f4e487b7100000000000000000000000000000000000000000000000000000000600052603260045260246000fd5b9060005260206000209060030201600101546064600487815481106105f1577f4e487b7100000000000000000000000000000000000000000000000000000000600052603260045260246000fd5b90600052602060002090600302016000015461060d9190610cc8565b6106179190610c41565b6106219190610cc8565b61062b9190610c97565b905080915050919050565b60005b6001548110156107cf576004818154811061067d577f4e487b7100000000000000000000000000000000000000000000000000000000600052603260045260246000fd5b906000526020600020906003020160020160009054906101000a900473ffffffffffffffffffffffffffffffffffffffff1673ffffffffffffffffffffffffffffffffffffffff166108fc61271060005460048581548110610708577f4e487b7100000000000000000000000000000000000000000000000000000000600052603260045260246000fd5b906000526020600020906003020160010154606460048781548110610756577f4e487b7100000000000000000000000000000000000000000000000000000000600052603260045260246000fd5b9060005260206000209060030201600001546107729190610cc8565b61077c9190610c41565b6107869190610cc8565b6107909190610c97565b9081150290604051600060405180830381858888f193505050501580156107bb573d6000803e3d6000fd5b5080806107c790610dff565b915050610639565b50565b60405180606001604052806000815260200160008152602001600073ffffffffffffffffffffffffffffffffffffffff1681525090565b600061081c61081784610bc6565b610ba1565b9050808382526020820190508285606086028201111561083b57600080fd5b60005b8581101561086b578161085188826108b4565b84526020840193506060830192505060018101905061083e565b5050509392505050565b60008135905061088481610f1c565b92915050565b600082601f83011261089b57600080fd5b81356108ab848260208601610809565b91505092915050565b6000606082840312156108c657600080fd5b6108d06060610ba1565b905060006108e084828501610914565b60008301525060206108f484828501610914565b602083015250604061090884828501610875565b60408301525092915050565b60008135905061092381610f33565b92915050565b60006020828403121561093b57600080fd5b600082013567ffffffffffffffff81111561095557600080fd5b6109618482850161088a565b91505092915050565b60006020828403121561097c57600080fd5b600061098a84828501610914565b91505092915050565b600061099f8383610a8b565b60608301905092915050565b6109b481610d5e565b82525050565b6109c381610d4c565b82525050565b60006109d482610c07565b6109de8185610c1f565b93506109e983610bf2565b8060005b83811015610a195781610a008882610993565b9750610a0b83610c12565b9250506001810190506109ed565b5085935050505092915050565b6000610a33601483610c30565b9150610a3e82610ef3565b602082019050919050565b606082016000820151610a5f6000850182610af0565b506020820151610a726020850182610af0565b506040820151610a8560408501826109ab565b50505050565b606082016000808301549050610aa081610db4565b610aad6000860182610af0565b5060018301549050610abe81610db4565b610acb6020860182610af0565b5060028301549050610adc81610d9a565b610ae960408601826109ab565b5050505050565b610af981610d90565b82525050565b610b0881610d90565b82525050565b6000602082019050610b2360008301846109ba565b92915050565b60006020820190508181036000830152610b4381846109c9565b905092915050565b60006020820190508181036000830152610b6481610a26565b9050919050565b6000606082019050610b806000830184610a49565b92915050565b6000602082019050610b9b6000830184610aff565b92915050565b6000610bab610bbc565b9050610bb78282610dce565b919050565b6000604051905090565b600067ffffffffffffffff821115610be157610be0610ea6565b5b602082029050602081019050919050565b60008190508160005260206000209050919050565b600081549050919050565b6000600382019050919050565b600082825260208201905092915050565b600082825260208201905092915050565b6000610c4c82610d90565b9150610c5783610d90565b9250827fffffffffffffffffffffffffffffffffffffffffffffffffffffffffffffffff03821115610c8c57610c8b610e48565b5b828201905092915050565b6000610ca282610d90565b9150610cad83610d90565b925082610cbd57610cbc610e77565b5b828204905092915050565b6000610cd382610d90565b9150610cde83610d90565b9250817fffffffffffffffffffffffffffffffffffffffffffffffffffffffffffffffff0483118215151615610d1757610d16610e48565b5b828202905092915050565b600073ffffffffffffffffffffffffffffffffffffffff82169050919050565b6000819050919050565b6000610d5782610d70565b9050919050565b6000610d6982610d70565b9050919050565b600073ffffffffffffffffffffffffffffffffffffffff82169050919050565b6000819050919050565b6000610dad610da883610ee6565b610d22565b9050919050565b6000610dc7610dc283610ee6565b610d42565b9050919050565b610dd782610ed5565b810181811067ffffffffffffffff82111715610df657610df5610ea6565b5b80604052505050565b6000610e0a82610d90565b91507fffffffffffffffffffffffffffffffffffffffffffffffffffffffffffffffff821415610e3d57610e3c610e48565b5b600182019050919050565b7f4e487b7100000000000000000000000000000000000000000000000000000000600052601160045260246000fd5b7f4e487b7100000000000000000000000000000000000000000000000000000000600052601260045260246000fd5b7f4e487b7100000000000000000000000000000000000000000000000000000000600052604160045260246000fd5b6000601f19601f8301169050919050565b60008160001c9050919050565b7f7368617265732073756d2069732077726f6e6721000000000000000000000000600082015250565b610f2581610d5e565b8114610f3057600080fd5b50565b610f3c81610d90565b8114610f4757600080fd5b5056fea2646970667358221220c1452de770b70f26f2c9543b7e1de455b55a6498090ad8f7c2cdd6180409699264736f6c63430008010033",
  "linkReferences": {},
  "deployedLinkReferences": {}
}