{
  "_format": "hh-sol-artifact-1",
  "contractName": "PaymentSplitter",
  "sourceName": "contracts/PaymentSplitter.sol",
  "abi": [
    {
      "inputs": [],
      "stateMutability": "nonpayable",
      "type": "constructor"
    },
    {
      "anonymous": false,
      "inputs": [
        {
          "indexed": false,
          "internalType": "uint256",
          "name": "newAmount",
          "type": "uint256"
        }
      ],
      "name": "amountChanged",
      "type": "event"
    },
    {
      "anonymous": false,
      "inputs": [
        {
          "components": [
            {
              "internalType": "uint256",
              "name": "perc_big_part",
              "type": "uint256"
            },
            {
              "internalType": "uint256",
              "name": "perc_lil_part",
              "type": "uint256"
            },
            {
              "internalType": "address payable",
              "name": "addresses",
              "type": "address"
            }
          ],
          "indexed": false,
          "internalType": "struct PaymentSplitter.Member[]",
          "name": "members",
          "type": "tuple[]"
        }
      ],
      "name": "membersChanged",
      "type": "event"
    },
    {
      "inputs": [],
      "name": "getAmount",
      "outputs": [
        {
          "internalType": "uint256",
          "name": "",
          "type": "uint256"
        }
      ],
      "stateMutability": "view",
      "type": "function"
    },
    {
      "inputs": [
        {
          "internalType": "uint256",
          "name": "i",
          "type": "uint256"
        }
      ],
      "name": "getPath",
      "outputs": [
        {
          "internalType": "uint256",
          "name": "",
          "type": "uint256"
        }
      ],
      "stateMutability": "view",
      "type": "function"
    },
    {
      "inputs": [],
      "name": "owner",
      "outputs": [
        {
          "internalType": "address",
          "name": "",
          "type": "address"
        }
      ],
      "stateMutability": "view",
      "type": "function"
    },
    {
      "inputs": [],
      "name": "setAmount",
      "outputs": [],
      "stateMutability": "payable",
      "type": "function"
    },
    {
      "inputs": [
        {
          "components": [
            {
              "internalType": "uint256",
              "name": "perc_big_part",
              "type": "uint256"
            },
            {
              "internalType": "uint256",
              "name": "perc_lil_part",
              "type": "uint256"
            },
            {
              "internalType": "address payable",
              "name": "addresses",
              "type": "address"
            }
          ],
          "internalType": "struct PaymentSplitter.Member[]",
          "name": "_members",
          "type": "tuple[]"
        }
      ],
      "name": "setShares",
      "outputs": [
        {
          "internalType": "uint256",
          "name": "",
          "type": "uint256"
        }
      ],
      "stateMutability": "nonpayable",
      "type": "function"
    },
    {
      "inputs": [],
      "name": "split",
      "outputs": [],
      "stateMutability": "nonpayable",
      "type": "function"
    }
  ],
  "bytecode": "0x608060405234801561001057600080fd5b5033600360006101000a81548173ffffffffffffffffffffffffffffffffffffffff021916908373ffffffffffffffffffffffffffffffffffffffff160217905550610db5806100616000396000f3fe6080604052600436106100555760003560e01c806344770daa1461005a57806378f8ef88146100645780638da5cb5b146100a1578063d321fe29146100cc578063e1765073146100f7578063f765417614610134575b600080fd5b61006261014b565b005b34801561007057600080fd5b5061008b600480360381019061008691906107bb565b61018d565b60405161009891906109bb565b60405180910390f35b3480156100ad57600080fd5b506100b66103fa565b6040516100c3919061095e565b60405180910390f35b3480156100d857600080fd5b506100e1610420565b6040516100ee91906109bb565b60405180910390f35b34801561010357600080fd5b5061011e600480360381019061011991906107fc565b610429565b60405161012b91906109bb565b60405180910390f35b34801561014057600080fd5b506101496104ff565b005b346000819055507fd48083585ed3d68358c79c1f8541c517afc1e9a50287449a8bb5d5f2de3d619060005460405161018391906109bb565b60405180910390a1565b60008151600181905550600060028190555060005b6001548110156102875760046000815481106101e7577f4e487b7100000000000000000000000000000000000000000000000000000000600052603260045260246000fd5b90600052602060002090600302016001015460646004600081548110610236577f4e487b7100000000000000000000000000000000000000000000000000000000600052603260045260246000fd5b9060005260206000209060030201600001546102529190610afd565b61025c9190610a76565b6002600082825461026d9190610a76565b92505081905550808061027f90610c34565b9150506101a2565b50612710600254146102ce576040517f08c379a00000000000000000000000000000000000000000000000000000000081526004016102c59061099b565b60405180910390fd5b60005b6001548110156103b7576004838281518110610316577f4e487b7100000000000000000000000000000000000000000000000000000000600052603260045260246000fd5b60200260200101519080600181540180825580915050600190039060005260206000209060030201600090919091909150600082015181600001556020820151816001015560408201518160020160006101000a81548173ffffffffffffffffffffffffffffffffffffffff021916908373ffffffffffffffffffffffffffffffffffffffff160217905550505080806103af90610c34565b9150506102d1565b507fe7b4f1f28c2c89c18340a5b78032b1a17b98cc25faad5ce52980e14ba777a38f60046040516103e89190610979565b60405180910390a16001549050919050565b600360009054906101000a900473ffffffffffffffffffffffffffffffffffffffff1681565b60008054905090565b6000806127106000546004858154811061046c577f4e487b7100000000000000000000000000000000000000000000000000000000600052603260045260246000fd5b9060005260206000209060030201600101546064600487815481106104ba577f4e487b7100000000000000000000000000000000000000000000000000000000600052603260045260246000fd5b9060005260206000209060030201600001546104d69190610afd565b6104e09190610a76565b6104ea9190610afd565b6104f49190610acc565b905080915050919050565b60005b6001548110156106985760048181548110610546577f4e487b7100000000000000000000000000000000000000000000000000000000600052603260045260246000fd5b906000526020600020906003020160020160009054906101000a900473ffffffffffffffffffffffffffffffffffffffff1673ffffffffffffffffffffffffffffffffffffffff166108fc612710600054600485815481106105d1577f4e487b7100000000000000000000000000000000000000000000000000000000600052603260045260246000fd5b90600052602060002090600302016001015460646004878154811061061f577f4e487b7100000000000000000000000000000000000000000000000000000000600052603260045260246000fd5b90600052602060002090600302016000015461063b9190610afd565b6106459190610a76565b61064f9190610afd565b6106599190610acc565b9081150290604051600060405180830381858888f19350505050158015610684573d6000803e3d6000fd5b50808061069090610c34565b915050610502565b50565b60006106ae6106a9846109fb565b6109d6565b905080838252602082019050828560608602820111156106cd57600080fd5b60005b858110156106fd57816106e38882610746565b8452602084019350606083019250506001810190506106d0565b5050509392505050565b60008135905061071681610d51565b92915050565b600082601f83011261072d57600080fd5b813561073d84826020860161069b565b91505092915050565b60006060828403121561075857600080fd5b61076260606109d6565b90506000610772848285016107a6565b6000830152506020610786848285016107a6565b602083015250604061079a84828501610707565b60408301525092915050565b6000813590506107b581610d68565b92915050565b6000602082840312156107cd57600080fd5b600082013567ffffffffffffffff8111156107e757600080fd5b6107f38482850161071c565b91505092915050565b60006020828403121561080e57600080fd5b600061081c848285016107a6565b91505092915050565b600061083183836108db565b60608301905092915050565b61084681610b93565b82525050565b61085581610b81565b82525050565b600061086682610a3c565b6108708185610a54565b935061087b83610a27565b8060005b838110156108ab57816108928882610825565b975061089d83610a47565b92505060018101905061087f565b5085935050505092915050565b60006108c5601483610a65565b91506108d082610d28565b602082019050919050565b6060820160008083015490506108f081610be9565b6108fd6000860182610940565b506001830154905061090e81610be9565b61091b6020860182610940565b506002830154905061092c81610bcf565b610939604086018261083d565b5050505050565b61094981610bc5565b82525050565b61095881610bc5565b82525050565b6000602082019050610973600083018461084c565b92915050565b60006020820190508181036000830152610993818461085b565b905092915050565b600060208201905081810360008301526109b4816108b8565b9050919050565b60006020820190506109d0600083018461094f565b92915050565b60006109e06109f1565b90506109ec8282610c03565b919050565b6000604051905090565b600067ffffffffffffffff821115610a1657610a15610cdb565b5b602082029050602081019050919050565b60008190508160005260206000209050919050565b600081549050919050565b6000600382019050919050565b600082825260208201905092915050565b600082825260208201905092915050565b6000610a8182610bc5565b9150610a8c83610bc5565b9250827fffffffffffffffffffffffffffffffffffffffffffffffffffffffffffffffff03821115610ac157610ac0610c7d565b5b828201905092915050565b6000610ad782610bc5565b9150610ae283610bc5565b925082610af257610af1610cac565b5b828204905092915050565b6000610b0882610bc5565b9150610b1383610bc5565b9250817fffffffffffffffffffffffffffffffffffffffffffffffffffffffffffffffff0483118215151615610b4c57610b4b610c7d565b5b828202905092915050565b600073ffffffffffffffffffffffffffffffffffffffff82169050919050565b6000819050919050565b6000610b8c82610ba5565b9050919050565b6000610b9e82610ba5565b9050919050565b600073ffffffffffffffffffffffffffffffffffffffff82169050919050565b6000819050919050565b6000610be2610bdd83610d1b565b610b57565b9050919050565b6000610bfc610bf783610d1b565b610b77565b9050919050565b610c0c82610d0a565b810181811067ffffffffffffffff82111715610c2b57610c2a610cdb565b5b80604052505050565b6000610c3f82610bc5565b91507fffffffffffffffffffffffffffffffffffffffffffffffffffffffffffffffff821415610c7257610c71610c7d565b5b600182019050919050565b7f4e487b7100000000000000000000000000000000000000000000000000000000600052601160045260246000fd5b7f4e487b7100000000000000000000000000000000000000000000000000000000600052601260045260246000fd5b7f4e487b7100000000000000000000000000000000000000000000000000000000600052604160045260246000fd5b6000601f19601f8301169050919050565b60008160001c9050919050565b7f7368617265732073756d2069732077726f6e6721000000000000000000000000600082015250565b610d5a81610b93565b8114610d6557600080fd5b50565b610d7181610bc5565b8114610d7c57600080fd5b5056fea2646970667358221220085dc449bfc0d31507959252821e3e58c562e59d099c0fc3c07dfd4b6a86c66a64736f6c63430008010033",
  "linkReferences": {},
  "deployedLinkReferences": {}
}