{
  "_format": "hh-sol-artifact-1",
  "contractName": "Test",
  "sourceName": "contracts/Test.sol",
  "abi": [
    {
      "anonymous": false,
      "inputs": [
        {
          "indexed": false,
          "internalType": "uint256",
          "name": "newValue",
          "type": "uint256"
        }
      ],
      "name": "SumChanged",
      "type": "event"
    },
    {
      "inputs": [],
      "name": "getSum",
      "outputs": [
        {
          "internalType": "uint256",
          "name": "",
          "type": "uint256"
        }
      ],
      "stateMutability": "view",
      "type": "function"
    },
    {
      "inputs": [
        {
          "internalType": "uint256",
          "name": "",
          "type": "uint256"
        }
      ],
      "name": "persons",
      "outputs": [
        {
          "internalType": "uint256",
          "name": "funds",
          "type": "uint256"
        },
        {
          "internalType": "address",
          "name": "addr",
          "type": "address"
        }
      ],
      "stateMutability": "view",
      "type": "function"
    },
    {
      "inputs": [
        {
          "internalType": "uint256[]",
          "name": "shares",
          "type": "uint256[]"
        }
      ],
      "name": "setShares",
      "outputs": [],
      "stateMutability": "nonpayable",
      "type": "function"
    },
    {
      "inputs": [
        {
          "internalType": "uint256",
          "name": "Sum",
          "type": "uint256"
        }
      ],
      "name": "setSum",
      "outputs": [],
      "stateMutability": "nonpayable",
      "type": "function"
    }
  ],
  "bytecode": "0x608060405234801561001057600080fd5b50610655806100206000396000f3fe608060405234801561001057600080fd5b506004361061004c5760003560e01c8063569c5f6d146100515780637be4ca5b1461006f578063a2f9eac61461008b578063dbff83be146100bc575b600080fd5b6100596100d8565b60405161006691906103be565b60405180910390f35b61008960048036038101906100849190610334565b6100e2565b005b6100a560048036038101906100a09190610334565b610123565b6040516100b39291906103d9565b60405180910390f35b6100d660048036038101906100d191906102f3565b610177565b005b6000600154905090565b806001819055507fcaeb6c3ff6bd16de81c29349e556a7523394cee9fe65f51267ec55f0491840ad8160405161011891906103be565b60405180910390a150565b6004818154811061013357600080fd5b90600052602060002090600202016000915090508060000154908060010160009054906101000a900473ffffffffffffffffffffffffffffffffffffffff16905082565b8051600281905550600060038190555060005b81518110156101ff578181815181106101cc577f4e487b7100000000000000000000000000000000000000000000000000000000600052603260045260246000fd5b6020026020010151600360008282546101e59190610464565b9250508190555080806101f790610527565b91505061018a565b50606460035414610245576040517f08c379a000000000000000000000000000000000000000000000000000000000815260040161023c9061039e565b60405180910390fd5b50565b600061025b61025684610427565b610402565b9050808382526020820190508285602086028201111561027a57600080fd5b60005b858110156102aa578161029088826102de565b84526020840193506020830192505060018101905061027d565b5050509392505050565b600082601f8301126102c557600080fd5b81356102d5848260208601610248565b91505092915050565b6000813590506102ed81610608565b92915050565b60006020828403121561030557600080fd5b600082013567ffffffffffffffff81111561031f57600080fd5b61032b848285016102b4565b91505092915050565b60006020828403121561034657600080fd5b6000610354848285016102de565b91505092915050565b610366816104ba565b82525050565b6000610379601983610453565b9150610384826105df565b602082019050919050565b610398816104ec565b82525050565b600060208201905081810360008301526103b78161036c565b9050919050565b60006020820190506103d3600083018461038f565b92915050565b60006040820190506103ee600083018561038f565b6103fb602083018461035d565b9392505050565b600061040c61041d565b905061041882826104f6565b919050565b6000604051905090565b600067ffffffffffffffff8211156104425761044161059f565b5b602082029050602081019050919050565b600082825260208201905092915050565b600061046f826104ec565b915061047a836104ec565b9250827fffffffffffffffffffffffffffffffffffffffffffffffffffffffffffffffff038211156104af576104ae610570565b5b828201905092915050565b60006104c5826104cc565b9050919050565b600073ffffffffffffffffffffffffffffffffffffffff82169050919050565b6000819050919050565b6104ff826105ce565b810181811067ffffffffffffffff8211171561051e5761051d61059f565b5b80604052505050565b6000610532826104ec565b91507fffffffffffffffffffffffffffffffffffffffffffffffffffffffffffffffff82141561056557610564610570565b5b600182019050919050565b7f4e487b7100000000000000000000000000000000000000000000000000000000600052601160045260246000fd5b7f4e487b7100000000000000000000000000000000000000000000000000000000600052604160045260246000fd5b6000601f19601f8301169050919050565b7f736861726527732073756d6d6172792069732077726f6e672100000000000000600082015250565b610611816104ec565b811461061c57600080fd5b5056fea26469706673582212202b18cc66e703c0154ca4995e981b2b226c7eea09ae1c9e76eb6b0d050f6fc1e864736f6c63430008010033",
  "linkReferences": {},
  "deployedLinkReferences": {}
}