{
  "_format": "hh-sol-artifact-1",
  "contractName": "Test",
  "sourceName": "contracts/Test.sol",
  "abi": [
    {
      "anonymous": false,
      "inputs": [
        {
          "indexed": false,
          "internalType": "uint256",
          "name": "newValue",
          "type": "uint256"
        }
      ],
      "name": "SumChanged",
      "type": "event"
    },
    {
      "inputs": [],
      "name": "getPath",
      "outputs": [
        {
          "internalType": "uint256",
          "name": "",
          "type": "uint256"
        }
      ],
      "stateMutability": "view",
      "type": "function"
    },
    {
      "inputs": [],
      "name": "getSum",
      "outputs": [
        {
          "internalType": "uint256",
          "name": "",
          "type": "uint256"
        }
      ],
      "stateMutability": "view",
      "type": "function"
    },
    {
      "inputs": [
        {
          "internalType": "uint256[]",
          "name": "_shares",
          "type": "uint256[]"
        }
      ],
      "name": "setShares",
      "outputs": [],
      "stateMutability": "nonpayable",
      "type": "function"
    },
    {
      "inputs": [
        {
          "internalType": "uint256",
          "name": "Sum",
          "type": "uint256"
        }
      ],
      "name": "setSum",
      "outputs": [],
      "stateMutability": "nonpayable",
      "type": "function"
    },
    {
      "inputs": [],
      "name": "split",
      "outputs": [],
      "stateMutability": "nonpayable",
      "type": "function"
    }
  ],
  "bytecode": "0x608060405234801561001057600080fd5b50610870806100206000396000f3fe608060405234801561001057600080fd5b50600436106100575760003560e01c8063555b37be1461005c578063569c5f6d1461007a5780637be4ca5b14610098578063dbff83be146100b4578063f7654176146100d0575b600080fd5b6100646100da565b604051610071919061057a565b60405180910390f35b610082610140565b60405161008f919061057a565b60405180910390f35b6100b260048036038101906100ad91906104ff565b61014a565b005b6100ce60048036038101906100c991906104be565b61018b565b005b6100d861027b565b005b60006064600154600460008154811061011c577f4e487b7100000000000000000000000000000000000000000000000000000000600052603260045260246000fd5b9060005260206000200154610131919061067e565b61013b919061064d565b905090565b6000600154905090565b806001819055507fcaeb6c3ff6bd16de81c29349e556a7523394cee9fe65f51267ec55f0491840ad81604051610180919061057a565b60405180910390a150565b805160028190555080600490805190602001906101a99291906103a9565b50600060038190555060005b60048054905081101561023257600481815481106101fc577f4e487b7100000000000000000000000000000000000000000000000000000000600052603260045260246000fd5b90600052602060002001546003600082825461021891906105f7565b92505081905550808061022a90610713565b9150506101b5565b50606460035414610278576040517f08c379a000000000000000000000000000000000000000000000000000000000815260040161026f9061055a565b60405180910390fd5b50565b60005b6004805490508110156103a657600581815481106102c5577f4e487b7100000000000000000000000000000000000000000000000000000000600052603260045260246000fd5b9060005260206000200160009054906101000a900473ffffffffffffffffffffffffffffffffffffffff1673ffffffffffffffffffffffffffffffffffffffff166108fc606460015460048581548110610348577f4e487b7100000000000000000000000000000000000000000000000000000000600052603260045260246000fd5b906000526020600020015461035d919061067e565b610367919061064d565b9081150290604051600060405180830381858888f19350505050158015610392573d6000803e3d6000fd5b50808061039e90610713565b91505061027e565b50565b8280548282559060005260206000209081019282156103e5579160200282015b828111156103e45782518255916020019190600101906103c9565b5b5090506103f291906103f6565b5090565b5b8082111561040f5760008160009055506001016103f7565b5090565b6000610426610421846105ba565b610595565b9050808382526020820190508285602086028201111561044557600080fd5b60005b85811015610475578161045b88826104a9565b845260208401935060208301925050600181019050610448565b5050509392505050565b600082601f83011261049057600080fd5b81356104a0848260208601610413565b91505092915050565b6000813590506104b881610823565b92915050565b6000602082840312156104d057600080fd5b600082013567ffffffffffffffff8111156104ea57600080fd5b6104f68482850161047f565b91505092915050565b60006020828403121561051157600080fd5b600061051f848285016104a9565b91505092915050565b60006105356019836105e6565b9150610540826107fa565b602082019050919050565b610554816106d8565b82525050565b6000602082019050818103600083015261057381610528565b9050919050565b600060208201905061058f600083018461054b565b92915050565b600061059f6105b0565b90506105ab82826106e2565b919050565b6000604051905090565b600067ffffffffffffffff8211156105d5576105d46107ba565b5b602082029050602081019050919050565b600082825260208201905092915050565b6000610602826106d8565b915061060d836106d8565b9250827fffffffffffffffffffffffffffffffffffffffffffffffffffffffffffffffff038211156106425761064161075c565b5b828201905092915050565b6000610658826106d8565b9150610663836106d8565b9250826106735761067261078b565b5b828204905092915050565b6000610689826106d8565b9150610694836106d8565b9250817fffffffffffffffffffffffffffffffffffffffffffffffffffffffffffffffff04831182151516156106cd576106cc61075c565b5b828202905092915050565b6000819050919050565b6106eb826107e9565b810181811067ffffffffffffffff8211171561070a576107096107ba565b5b80604052505050565b600061071e826106d8565b91507fffffffffffffffffffffffffffffffffffffffffffffffffffffffffffffffff8214156107515761075061075c565b5b600182019050919050565b7f4e487b7100000000000000000000000000000000000000000000000000000000600052601160045260246000fd5b7f4e487b7100000000000000000000000000000000000000000000000000000000600052601260045260246000fd5b7f4e487b7100000000000000000000000000000000000000000000000000000000600052604160045260246000fd5b6000601f19601f8301169050919050565b7f736861726527732073756d6d6172792069732077726f6e672100000000000000600082015250565b61082c816106d8565b811461083757600080fd5b5056fea26469706673582212208d2040c053c239f7667521d7ed3a95dcf31ce5893885c1004f7ea4e8eb98fc6964736f6c63430008010033",
  "linkReferences": {},
  "deployedLinkReferences": {}
}