{
  "_format": "hh-sol-artifact-1",
  "contractName": "Test",
  "sourceName": "contracts/Test.sol",
  "abi": [
    {
      "anonymous": false,
      "inputs": [
        {
          "indexed": false,
          "internalType": "uint256",
          "name": "newValue",
          "type": "uint256"
        }
      ],
      "name": "SumChanged",
      "type": "event"
    },
    {
      "inputs": [],
      "name": "getPath",
      "outputs": [
        {
          "internalType": "uint256",
          "name": "",
          "type": "uint256"
        }
      ],
      "stateMutability": "view",
      "type": "function"
    },
    {
      "inputs": [],
      "name": "getSum",
      "outputs": [
        {
          "internalType": "uint256",
          "name": "",
          "type": "uint256"
        }
      ],
      "stateMutability": "view",
      "type": "function"
    },
    {
      "inputs": [
        {
          "internalType": "uint256[]",
          "name": "_shares",
          "type": "uint256[]"
        }
      ],
      "name": "setShares",
      "outputs": [],
      "stateMutability": "nonpayable",
      "type": "function"
    },
    {
      "inputs": [
        {
          "internalType": "uint256",
          "name": "Sum",
          "type": "uint256"
        }
      ],
      "name": "setSum",
      "outputs": [],
      "stateMutability": "nonpayable",
      "type": "function"
    },
    {
      "inputs": [],
      "name": "split",
      "outputs": [],
      "stateMutability": "nonpayable",
      "type": "function"
    }
  ],
  "bytecode": "0x608060405234801561001057600080fd5b50610875806100206000396000f3fe608060405234801561001057600080fd5b50600436106100575760003560e01c8063555b37be1461005c578063569c5f6d1461007a5780637be4ca5b14610098578063dbff83be146100b4578063f7654176146100d0575b600080fd5b6100646100da565b604051610071919061057f565b60405180910390f35b610082610145565b60405161008f919061057f565b60405180910390f35b6100b260048036038101906100ad9190610504565b61014f565b005b6100ce60048036038101906100c991906104c3565b610190565b005b6100d8610280565b005b6000806064600154600460008154811061011d577f4e487b7100000000000000000000000000000000000000000000000000000000600052603260045260246000fd5b90600052602060002001546101329190610683565b61013c9190610652565b90508091505090565b6000600154905090565b806001819055507fcaeb6c3ff6bd16de81c29349e556a7523394cee9fe65f51267ec55f0491840ad81604051610185919061057f565b60405180910390a150565b805160028190555080600490805190602001906101ae9291906103ae565b50600060038190555060005b6004805490508110156102375760048181548110610201577f4e487b7100000000000000000000000000000000000000000000000000000000600052603260045260246000fd5b90600052602060002001546003600082825461021d91906105fc565b92505081905550808061022f90610718565b9150506101ba565b5060646003541461027d576040517f08c379a00000000000000000000000000000000000000000000000000000000081526004016102749061055f565b60405180910390fd5b50565b60005b6004805490508110156103ab57600581815481106102ca577f4e487b7100000000000000000000000000000000000000000000000000000000600052603260045260246000fd5b9060005260206000200160009054906101000a900473ffffffffffffffffffffffffffffffffffffffff1673ffffffffffffffffffffffffffffffffffffffff166108fc60646001546004858154811061034d577f4e487b7100000000000000000000000000000000000000000000000000000000600052603260045260246000fd5b90600052602060002001546103629190610683565b61036c9190610652565b9081150290604051600060405180830381858888f19350505050158015610397573d6000803e3d6000fd5b5080806103a390610718565b915050610283565b50565b8280548282559060005260206000209081019282156103ea579160200282015b828111156103e95782518255916020019190600101906103ce565b5b5090506103f791906103fb565b5090565b5b808211156104145760008160009055506001016103fc565b5090565b600061042b610426846105bf565b61059a565b9050808382526020820190508285602086028201111561044a57600080fd5b60005b8581101561047a578161046088826104ae565b84526020840193506020830192505060018101905061044d565b5050509392505050565b600082601f83011261049557600080fd5b81356104a5848260208601610418565b91505092915050565b6000813590506104bd81610828565b92915050565b6000602082840312156104d557600080fd5b600082013567ffffffffffffffff8111156104ef57600080fd5b6104fb84828501610484565b91505092915050565b60006020828403121561051657600080fd5b6000610524848285016104ae565b91505092915050565b600061053a6019836105eb565b9150610545826107ff565b602082019050919050565b610559816106dd565b82525050565b600060208201905081810360008301526105788161052d565b9050919050565b60006020820190506105946000830184610550565b92915050565b60006105a46105b5565b90506105b082826106e7565b919050565b6000604051905090565b600067ffffffffffffffff8211156105da576105d96107bf565b5b602082029050602081019050919050565b600082825260208201905092915050565b6000610607826106dd565b9150610612836106dd565b9250827fffffffffffffffffffffffffffffffffffffffffffffffffffffffffffffffff0382111561064757610646610761565b5b828201905092915050565b600061065d826106dd565b9150610668836106dd565b92508261067857610677610790565b5b828204905092915050565b600061068e826106dd565b9150610699836106dd565b9250817fffffffffffffffffffffffffffffffffffffffffffffffffffffffffffffffff04831182151516156106d2576106d1610761565b5b828202905092915050565b6000819050919050565b6106f0826107ee565b810181811067ffffffffffffffff8211171561070f5761070e6107bf565b5b80604052505050565b6000610723826106dd565b91507fffffffffffffffffffffffffffffffffffffffffffffffffffffffffffffffff82141561075657610755610761565b5b600182019050919050565b7f4e487b7100000000000000000000000000000000000000000000000000000000600052601160045260246000fd5b7f4e487b7100000000000000000000000000000000000000000000000000000000600052601260045260246000fd5b7f4e487b7100000000000000000000000000000000000000000000000000000000600052604160045260246000fd5b6000601f19601f8301169050919050565b7f736861726527732073756d6d6172792069732077726f6e672100000000000000600082015250565b610831816106dd565b811461083c57600080fd5b5056fea264697066735822122017092b933442690fe6a80ae8455661caf78f55bddf9c5311f8b6c0545b3f5aa764736f6c63430008010033",
  "linkReferences": {},
  "deployedLinkReferences": {}
}