{
  "_format": "hh-sol-artifact-1",
  "contractName": "Test",
  "sourceName": "contracts/Test.sol",
  "abi": [
    {
      "anonymous": false,
      "inputs": [
        {
          "indexed": false,
          "internalType": "uint256",
          "name": "newValue",
          "type": "uint256"
        }
      ],
      "name": "SumChanged",
      "type": "event"
    },
    {
      "anonymous": false,
      "inputs": [
        {
          "indexed": false,
          "internalType": "uint256[]",
          "name": "_shares",
          "type": "uint256[]"
        }
      ],
      "name": "sharesChanged",
      "type": "event"
    },
    {
      "inputs": [],
      "name": "getPath",
      "outputs": [
        {
          "internalType": "uint256",
          "name": "",
          "type": "uint256"
        }
      ],
      "stateMutability": "view",
      "type": "function"
    },
    {
      "inputs": [],
      "name": "getSum",
      "outputs": [
        {
          "internalType": "uint256",
          "name": "",
          "type": "uint256"
        }
      ],
      "stateMutability": "view",
      "type": "function"
    },
    {
      "inputs": [
        {
          "internalType": "uint256[]",
          "name": "_shares",
          "type": "uint256[]"
        },
        {
          "internalType": "address payable[]",
          "name": "_addresses",
          "type": "address[]"
        }
      ],
      "name": "setShares",
      "outputs": [],
      "stateMutability": "nonpayable",
      "type": "function"
    },
    {
      "inputs": [
        {
          "internalType": "uint256",
          "name": "Sum",
          "type": "uint256"
        }
      ],
      "name": "setSum",
      "outputs": [],
      "stateMutability": "nonpayable",
      "type": "function"
    },
    {
      "inputs": [],
      "name": "split",
      "outputs": [],
      "stateMutability": "nonpayable",
      "type": "function"
    }
  ],
  "bytecode": "0x608060405234801561001057600080fd5b50610bca806100206000396000f3fe608060405234801561001057600080fd5b50600436106100575760003560e01c80632fe46f9f1461005c578063555b37be14610078578063569c5f6d146100965780637be4ca5b146100b4578063f7654176146100d0575b600080fd5b61007660048036038101906100719190610648565b6100da565b005b61008061021a565b60405161008d91906107dd565b60405180910390f35b61009e610285565b6040516100ab91906107dd565b60405180910390f35b6100ce60048036038101906100c991906106b4565b61028f565b005b6100d86102d0565b005b815160028190555081600490805190602001906100f89291906103fe565b507f3fd82b9953b52493ca85e3d3e614a29d49f999cfc908b668f7edff73252594716004604051610129919061079b565b60405180910390a1600060038190555060005b6004805490508110156101b95760048181548110610183577f4e487b7100000000000000000000000000000000000000000000000000000000600052603260045260246000fd5b90600052602060002001546003600082825461019f91906108c4565b9250508190555080806101b190610a36565b91505061013c565b506064600354146101ff576040517f08c379a00000000000000000000000000000000000000000000000000000000081526004016101f6906107bd565b60405180910390fd5b806005908051906020019061021592919061044b565b505050565b6000806064600154600460008154811061025d577f4e487b7100000000000000000000000000000000000000000000000000000000600052603260045260246000fd5b9060005260206000200154610272919061094b565b61027c919061091a565b90508091505090565b6000600154905090565b806001819055507fcaeb6c3ff6bd16de81c29349e556a7523394cee9fe65f51267ec55f0491840ad816040516102c591906107dd565b60405180910390a150565b60005b6004805490508110156103fb576005818154811061031a577f4e487b7100000000000000000000000000000000000000000000000000000000600052603260045260246000fd5b9060005260206000200160009054906101000a900473ffffffffffffffffffffffffffffffffffffffff1673ffffffffffffffffffffffffffffffffffffffff166108fc60646001546004858154811061039d577f4e487b7100000000000000000000000000000000000000000000000000000000600052603260045260246000fd5b90600052602060002001546103b2919061094b565b6103bc919061091a565b9081150290604051600060405180830381858888f193505050501580156103e7573d6000803e3d6000fd5b5080806103f390610a36565b9150506102d3565b50565b82805482825590600052602060002090810192821561043a579160200282015b8281111561043957825182559160200191906001019061041e565b5b50905061044791906104d5565b5090565b8280548282559060005260206000209081019282156104c4579160200282015b828111156104c35782518260006101000a81548173ffffffffffffffffffffffffffffffffffffffff021916908373ffffffffffffffffffffffffffffffffffffffff1602179055509160200191906001019061046b565b5b5090506104d191906104d5565b5090565b5b808211156104ee5760008160009055506001016104d6565b5090565b60006105056105008461081d565b6107f8565b9050808382526020820190508285602086028201111561052457600080fd5b60005b85811015610554578161053a88826105ca565b845260208401935060208301925050600181019050610527565b5050509392505050565b600061057161056c84610849565b6107f8565b9050808382526020820190508285602086028201111561059057600080fd5b60005b858110156105c057816105a68882610633565b845260208401935060208301925050600181019050610593565b5050509392505050565b6000813590506105d981610b66565b92915050565b600082601f8301126105f057600080fd5b81356106008482602086016104f2565b91505092915050565b600082601f83011261061a57600080fd5b813561062a84826020860161055e565b91505092915050565b60008135905061064281610b7d565b92915050565b6000806040838503121561065b57600080fd5b600083013567ffffffffffffffff81111561067557600080fd5b61068185828601610609565b925050602083013567ffffffffffffffff81111561069e57600080fd5b6106aa858286016105df565b9150509250929050565b6000602082840312156106c657600080fd5b60006106d484828501610633565b91505092915050565b60006106e9838361077d565b60208301905092915050565b60006107008261088a565b61070a81856108a2565b935061071583610875565b8060005b8381101561074d5761072a82610b0c565b61073488826106dd565b975061073f83610895565b925050600181019050610719565b5085935050505092915050565b60006107676019836108b3565b915061077282610b3d565b602082019050919050565b610786816109e1565b82525050565b610795816109e1565b82525050565b600060208201905081810360008301526107b581846106f5565b905092915050565b600060208201905081810360008301526107d68161075a565b9050919050565b60006020820190506107f2600083018461078c565b92915050565b6000610802610813565b905061080e8282610a05565b919050565b6000604051905090565b600067ffffffffffffffff82111561083857610837610add565b5b602082029050602081019050919050565b600067ffffffffffffffff82111561086457610863610add565b5b602082029050602081019050919050565b60008190508160005260206000209050919050565b600081549050919050565b6000600182019050919050565b600082825260208201905092915050565b600082825260208201905092915050565b60006108cf826109e1565b91506108da836109e1565b9250827fffffffffffffffffffffffffffffffffffffffffffffffffffffffffffffffff0382111561090f5761090e610a7f565b5b828201905092915050565b6000610925826109e1565b9150610930836109e1565b9250826109405761093f610aae565b5b828204905092915050565b6000610956826109e1565b9150610961836109e1565b9250817fffffffffffffffffffffffffffffffffffffffffffffffffffffffffffffffff048311821515161561099a57610999610a7f565b5b828202905092915050565b6000819050919050565b60006109ba826109c1565b9050919050565b600073ffffffffffffffffffffffffffffffffffffffff82169050919050565b6000819050919050565b60006109fe6109f983610b30565b6109a5565b9050919050565b610a0e82610b1f565b810181811067ffffffffffffffff82111715610a2d57610a2c610add565b5b80604052505050565b6000610a41826109e1565b91507fffffffffffffffffffffffffffffffffffffffffffffffffffffffffffffffff821415610a7457610a73610a7f565b5b600182019050919050565b7f4e487b7100000000000000000000000000000000000000000000000000000000600052601160045260246000fd5b7f4e487b7100000000000000000000000000000000000000000000000000000000600052601260045260246000fd5b7f4e487b7100000000000000000000000000000000000000000000000000000000600052604160045260246000fd5b6000610b1882546109eb565b9050919050565b6000601f19601f8301169050919050565b60008160001c9050919050565b7f736861726527732073756d6d6172792069732077726f6e672100000000000000600082015250565b610b6f816109af565b8114610b7a57600080fd5b50565b610b86816109e1565b8114610b9157600080fd5b5056fea264697066735822122076eeb6c95b83abf2b06bd1dda9c0ffbfbded65cf5ede83347d541744081f89c564736f6c63430008010033",
  "linkReferences": {},
  "deployedLinkReferences": {}
}